{
  "_format": "hh-sol-artifact-1",
  "contractName": "ABKoin",
  "sourceName": "contracts/ABKoin.sol",
  "abi": [
    {
      "inputs": [],
      "stateMutability": "nonpayable",
      "type": "constructor"
    },
    {
      "anonymous": false,
      "inputs": [
        {
          "indexed": true,
          "internalType": "address",
          "name": "owner",
          "type": "address"
        },
        {
          "indexed": true,
          "internalType": "address",
          "name": "spender",
          "type": "address"
        },
        {
          "indexed": false,
          "internalType": "uint256",
          "name": "value",
          "type": "uint256"
        }
      ],
      "name": "Approval",
      "type": "event"
    },
    {
      "anonymous": false,
      "inputs": [
        {
          "indexed": true,
          "internalType": "address",
          "name": "delegator",
          "type": "address"
        },
        {
          "indexed": true,
          "internalType": "address",
          "name": "fromDelegate",
          "type": "address"
        },
        {
          "indexed": true,
          "internalType": "address",
          "name": "toDelegate",
          "type": "address"
        }
      ],
      "name": "DelegateChanged",
      "type": "event"
    },
    {
      "anonymous": false,
      "inputs": [
        {
          "indexed": true,
          "internalType": "address",
          "name": "delegate",
          "type": "address"
        },
        {
          "indexed": false,
          "internalType": "uint256",
          "name": "previousBalance",
          "type": "uint256"
        },
        {
          "indexed": false,
          "internalType": "uint256",
          "name": "newBalance",
          "type": "uint256"
        }
      ],
      "name": "DelegateVotesChanged",
      "type": "event"
    },
    {
      "anonymous": false,
      "inputs": [
        {
          "indexed": true,
          "internalType": "address",
          "name": "previousOwner",
          "type": "address"
        },
        {
          "indexed": true,
          "internalType": "address",
          "name": "newOwner",
          "type": "address"
        }
      ],
      "name": "OwnershipTransferred",
      "type": "event"
    },
    {
      "anonymous": false,
      "inputs": [
        {
          "indexed": true,
          "internalType": "address",
          "name": "from",
          "type": "address"
        },
        {
          "indexed": true,
          "internalType": "address",
          "name": "to",
          "type": "address"
        },
        {
          "indexed": false,
          "internalType": "uint256",
          "name": "value",
          "type": "uint256"
        }
      ],
      "name": "Transfer",
      "type": "event"
    },
    {
      "inputs": [],
      "name": "DOMAIN_SEPARATOR",
      "outputs": [
        {
          "internalType": "bytes32",
          "name": "",
          "type": "bytes32"
        }
      ],
      "stateMutability": "view",
      "type": "function"
    },
    {
      "inputs": [
        {
          "internalType": "address",
          "name": "owner",
          "type": "address"
        },
        {
          "internalType": "address",
          "name": "spender",
          "type": "address"
        }
      ],
      "name": "allowance",
      "outputs": [
        {
          "internalType": "uint256",
          "name": "",
          "type": "uint256"
        }
      ],
      "stateMutability": "view",
      "type": "function"
    },
    {
      "inputs": [
        {
          "internalType": "address",
          "name": "spender",
          "type": "address"
        },
        {
          "internalType": "uint256",
          "name": "amount",
          "type": "uint256"
        }
      ],
      "name": "approve",
      "outputs": [
        {
          "internalType": "bool",
          "name": "",
          "type": "bool"
        }
      ],
      "stateMutability": "nonpayable",
      "type": "function"
    },
    {
      "inputs": [
        {
          "internalType": "address",
          "name": "account",
          "type": "address"
        }
      ],
      "name": "balanceOf",
      "outputs": [
        {
          "internalType": "uint256",
          "name": "",
          "type": "uint256"
        }
      ],
      "stateMutability": "view",
      "type": "function"
    },
    {
      "inputs": [
        {
          "internalType": "uint256",
          "name": "amount",
          "type": "uint256"
        }
      ],
      "name": "burn",
      "outputs": [],
      "stateMutability": "nonpayable",
      "type": "function"
    },
    {
      "inputs": [
        {
          "internalType": "address",
          "name": "account",
          "type": "address"
        },
        {
          "internalType": "uint256",
          "name": "amount",
          "type": "uint256"
        }
      ],
      "name": "burnFrom",
      "outputs": [],
      "stateMutability": "nonpayable",
      "type": "function"
    },
    {
      "inputs": [
        {
          "internalType": "address",
          "name": "account",
          "type": "address"
        },
        {
          "internalType": "uint32",
          "name": "pos",
          "type": "uint32"
        }
      ],
      "name": "checkpoints",
      "outputs": [
        {
          "components": [
            {
              "internalType": "uint32",
              "name": "fromBlock",
              "type": "uint32"
            },
            {
              "internalType": "uint224",
              "name": "votes",
              "type": "uint224"
            }
          ],
          "internalType": "struct ERC20VotesUpgradeable.Checkpoint",
          "name": "",
          "type": "tuple"
        }
      ],
      "stateMutability": "view",
      "type": "function"
    },
    {
      "inputs": [],
      "name": "decimals",
      "outputs": [
        {
          "internalType": "uint8",
          "name": "",
          "type": "uint8"
        }
      ],
      "stateMutability": "view",
      "type": "function"
    },
    {
      "inputs": [
        {
          "internalType": "address",
          "name": "spender",
          "type": "address"
        },
        {
          "internalType": "uint256",
          "name": "subtractedValue",
          "type": "uint256"
        }
      ],
      "name": "decreaseAllowance",
      "outputs": [
        {
          "internalType": "bool",
          "name": "",
          "type": "bool"
        }
      ],
      "stateMutability": "nonpayable",
      "type": "function"
    },
    {
      "inputs": [
        {
          "internalType": "address",
          "name": "delegatee",
          "type": "address"
        }
      ],
      "name": "delegate",
      "outputs": [],
      "stateMutability": "nonpayable",
      "type": "function"
    },
    {
      "inputs": [
        {
          "internalType": "address",
          "name": "delegatee",
          "type": "address"
        },
        {
          "internalType": "uint256",
          "name": "nonce",
          "type": "uint256"
        },
        {
          "internalType": "uint256",
          "name": "expiry",
          "type": "uint256"
        },
        {
          "internalType": "uint8",
          "name": "v",
          "type": "uint8"
        },
        {
          "internalType": "bytes32",
          "name": "r",
          "type": "bytes32"
        },
        {
          "internalType": "bytes32",
          "name": "s",
          "type": "bytes32"
        }
      ],
      "name": "delegateBySig",
      "outputs": [],
      "stateMutability": "nonpayable",
      "type": "function"
    },
    {
      "inputs": [
        {
          "internalType": "address",
          "name": "account",
          "type": "address"
        }
      ],
      "name": "delegates",
      "outputs": [
        {
          "internalType": "address",
          "name": "",
          "type": "address"
        }
      ],
      "stateMutability": "view",
      "type": "function"
    },
    {
      "inputs": [
        {
          "internalType": "uint256",
          "name": "blockNumber",
          "type": "uint256"
        }
      ],
      "name": "getPastTotalSupply",
      "outputs": [
        {
          "internalType": "uint256",
          "name": "",
          "type": "uint256"
        }
      ],
      "stateMutability": "view",
      "type": "function"
    },
    {
      "inputs": [
        {
          "internalType": "address",
          "name": "account",
          "type": "address"
        },
        {
          "internalType": "uint256",
          "name": "blockNumber",
          "type": "uint256"
        }
      ],
      "name": "getPastVotes",
      "outputs": [
        {
          "internalType": "uint256",
          "name": "",
          "type": "uint256"
        }
      ],
      "stateMutability": "view",
      "type": "function"
    },
    {
      "inputs": [
        {
          "internalType": "address",
          "name": "account",
          "type": "address"
        }
      ],
      "name": "getVotes",
      "outputs": [
        {
          "internalType": "uint256",
          "name": "",
          "type": "uint256"
        }
      ],
      "stateMutability": "view",
      "type": "function"
    },
    {
      "inputs": [
        {
          "internalType": "address",
          "name": "spender",
          "type": "address"
        },
        {
          "internalType": "uint256",
          "name": "addedValue",
          "type": "uint256"
        }
      ],
      "name": "increaseAllowance",
      "outputs": [
        {
          "internalType": "bool",
          "name": "",
          "type": "bool"
        }
      ],
      "stateMutability": "nonpayable",
      "type": "function"
    },
    {
      "inputs": [
        {
          "internalType": "uint256",
          "name": "_initialSupply",
          "type": "uint256"
        },
        {
          "internalType": "address",
          "name": "_governer",
          "type": "address"
        },
        {
          "internalType": "address",
          "name": "_priceFinder",
          "type": "address"
        }
      ],
      "name": "initialize",
      "outputs": [],
      "stateMutability": "nonpayable",
      "type": "function"
    },
    {
      "inputs": [
        {
          "internalType": "address",
          "name": "to",
          "type": "address"
        },
        {
          "internalType": "uint256",
          "name": "amount",
          "type": "uint256"
        }
      ],
      "name": "mint",
      "outputs": [],
      "stateMutability": "nonpayable",
      "type": "function"
    },
    {
      "inputs": [],
      "name": "name",
      "outputs": [
        {
          "internalType": "string",
          "name": "",
          "type": "string"
        }
      ],
      "stateMutability": "view",
      "type": "function"
    },
    {
      "inputs": [
        {
          "internalType": "address",
          "name": "owner",
          "type": "address"
        }
      ],
      "name": "nonces",
      "outputs": [
        {
          "internalType": "uint256",
          "name": "",
          "type": "uint256"
        }
      ],
      "stateMutability": "view",
      "type": "function"
    },
    {
      "inputs": [
        {
          "internalType": "address",
          "name": "account",
          "type": "address"
        }
      ],
      "name": "numCheckpoints",
      "outputs": [
        {
          "internalType": "uint32",
          "name": "",
          "type": "uint32"
        }
      ],
      "stateMutability": "view",
      "type": "function"
    },
    {
      "inputs": [],
      "name": "owner",
      "outputs": [
        {
          "internalType": "address",
          "name": "",
          "type": "address"
        }
      ],
      "stateMutability": "view",
      "type": "function"
    },
    {
      "inputs": [
        {
          "internalType": "address",
          "name": "owner",
          "type": "address"
        },
        {
          "internalType": "address",
          "name": "spender",
          "type": "address"
        },
        {
          "internalType": "uint256",
          "name": "value",
          "type": "uint256"
        },
        {
          "internalType": "uint256",
          "name": "deadline",
          "type": "uint256"
        },
        {
          "internalType": "uint8",
          "name": "v",
          "type": "uint8"
        },
        {
          "internalType": "bytes32",
          "name": "r",
          "type": "bytes32"
        },
        {
          "internalType": "bytes32",
          "name": "s",
          "type": "bytes32"
        }
      ],
      "name": "permit",
      "outputs": [],
      "stateMutability": "nonpayable",
      "type": "function"
    },
    {
      "inputs": [],
      "name": "renounceOwnership",
      "outputs": [],
      "stateMutability": "nonpayable",
      "type": "function"
    },
    {
      "inputs": [],
      "name": "symbol",
      "outputs": [
        {
          "internalType": "string",
          "name": "",
          "type": "string"
        }
      ],
      "stateMutability": "view",
      "type": "function"
    },
    {
      "inputs": [],
      "name": "totalSupply",
      "outputs": [
        {
          "internalType": "uint256",
          "name": "",
          "type": "uint256"
        }
      ],
      "stateMutability": "view",
      "type": "function"
    },
    {
      "inputs": [
        {
          "internalType": "address",
          "name": "to",
          "type": "address"
        },
        {
          "internalType": "uint256",
          "name": "amount",
          "type": "uint256"
        }
      ],
      "name": "transfer",
      "outputs": [
        {
          "internalType": "bool",
          "name": "",
          "type": "bool"
        }
      ],
      "stateMutability": "nonpayable",
      "type": "function"
    },
    {
      "inputs": [
        {
          "internalType": "address",
          "name": "from",
          "type": "address"
        },
        {
          "internalType": "address",
          "name": "to",
          "type": "address"
        },
        {
          "internalType": "uint256",
          "name": "amount",
          "type": "uint256"
        }
      ],
      "name": "transferFrom",
      "outputs": [
        {
          "internalType": "bool",
          "name": "",
          "type": "bool"
        }
      ],
      "stateMutability": "nonpayable",
      "type": "function"
    },
    {
      "inputs": [
        {
          "internalType": "address",
          "name": "newOwner",
          "type": "address"
        }
      ],
      "name": "transferOwnership",
      "outputs": [],
      "stateMutability": "nonpayable",
      "type": "function"
    }
  ],
  "bytecode": "0x608060405234801561001057600080fd5b50614966806100206000396000f3fe608060405234801561001057600080fd5b50600436106101cf5760003560e01c8063715018a611610104578063a457c2d7116100a2578063d505accf11610071578063d505accf1461057a578063dd62ed3e14610596578063f1127ed8146105c6578063f2fde38b146105f6576101cf565b8063a457c2d7146104e2578063a9059cbb14610512578063b4988fd014610542578063c3cda5201461055e576101cf565b80638da5cb5b116100de5780638da5cb5b146104465780638e539e8c1461046457806395d89b41146104945780639ab24eb0146104b2576101cf565b8063715018a6146103f057806379cc6790146103fa5780637ecebe0014610416576101cf565b80633a46b1a811610171578063587cde1e1161014b578063587cde1e146103445780635c19a95c146103745780636fcfff451461039057806370a08231146103c0576101cf565b80633a46b1a8146102dc57806340c10f191461030c57806342966c6814610328576101cf565b806323b872dd116101ad57806323b872dd14610240578063313ce567146102705780633644e5151461028e57806339509351146102ac576101cf565b806306fdde03146101d4578063095ea7b3146101f257806318160ddd14610222575b600080fd5b6101dc610612565b6040516101e99190613b8d565b60405180910390f35b61020c600480360381019061020791906133a6565b6106a4565b6040516102199190613a19565b60405180910390f35b61022a6106c7565b6040516102379190613f0a565b60405180910390f35b61025a600480360381019061025591906132b9565b6106d1565b6040516102679190613a19565b60405180910390f35b610278610700565b6040516102859190613f69565b60405180910390f35b610296610709565b6040516102a39190613a34565b60405180910390f35b6102c660048036038101906102c191906133a6565b610718565b6040516102d39190613a19565b60405180910390f35b6102f660048036038101906102f191906133a6565b6107c2565b6040516103039190613f0a565b60405180910390f35b610326600480360381019061032191906133a6565b610857565b005b610342600480360381019061033d91906134a7565b6108e1565b005b61035e60048036038101906103599190613254565b6108f5565b60405161036b91906139fe565b60405180910390f35b61038e60048036038101906103899190613254565b61095f565b005b6103aa60048036038101906103a59190613254565b610973565b6040516103b79190613f4e565b60405180910390f35b6103da60048036038101906103d59190613254565b6109c8565b6040516103e79190613f0a565b60405180910390f35b6103f8610a11565b005b610414600480360381019061040f91906133a6565b610a99565b005b610430600480360381019061042b9190613254565b610ab9565b60405161043d9190613f0a565b60405180910390f35b61044e610b09565b60405161045b91906139fe565b60405180910390f35b61047e600480360381019061047991906134a7565b610b33565b60405161048b9190613f0a565b60405180910390f35b61049c610b8a565b6040516104a99190613b8d565b60405180910390f35b6104cc60048036038101906104c79190613254565b610c1c565b6040516104d99190613f0a565b60405180910390f35b6104fc60048036038101906104f791906133a6565b610d55565b6040516105099190613a19565b60405180910390f35b61052c600480360381019061052791906133a6565b610e3f565b6040516105399190613a19565b60405180910390f35b61055c600480360381019061055791906134d0565b610e62565b005b610578600480360381019061057391906133e2565b61101e565b005b610594600480360381019061058f9190613308565b611122565b005b6105b060048036038101906105ab919061327d565b611246565b6040516105bd9190613f0a565b60405180910390f35b6105e060048036038101906105db919061346b565b6112cd565b6040516105ed9190613eef565b60405180910390f35b610610600480360381019061060b9190613254565b611404565b005b60606036805461062190614130565b80601f016020809104026020016040519081016040528092919081815260200182805461064d90614130565b801561069a5780601f1061066f5761010080835404028352916020019161069a565b820191906000526020600020905b81548152906001019060200180831161067d57829003601f168201915b5050505050905090565b6000806106af6114fc565b90506106bc818585611504565b600191505092915050565b6000603554905090565b6000806106dc6114fc565b90506106e98582856116cf565b6106f485858561175b565b60019150509392505050565b60006012905090565b60006107136119df565b905090565b6000806107236114fc565b90506107b7818585603460008673ffffffffffffffffffffffffffffffffffffffff1673ffffffffffffffffffffffffffffffffffffffff16815260200190815260200160002060008973ffffffffffffffffffffffffffffffffffffffff1673ffffffffffffffffffffffffffffffffffffffff168152602001908152602001600020546107b29190613fab565b611504565b600191505092915050565b6000438210610806576040517f08c379a00000000000000000000000000000000000000000000000000000000081526004016107fd90613bef565b60405180910390fd5b61084f61013160008573ffffffffffffffffffffffffffffffffffffffff1673ffffffffffffffffffffffffffffffffffffffff16815260200190815260200160002083611a1f565b905092915050565b61085f6114fc565b73ffffffffffffffffffffffffffffffffffffffff1661087d610b09565b73ffffffffffffffffffffffffffffffffffffffff16146108d3576040517f08c379a00000000000000000000000000000000000000000000000000000000081526004016108ca90613dcf565b60405180910390fd5b6108dd8282611b77565b5050565b6108f26108ec6114fc565b82611b85565b50565b600061013060008373ffffffffffffffffffffffffffffffffffffffff1673ffffffffffffffffffffffffffffffffffffffff16815260200190815260200160002060009054906101000a900473ffffffffffffffffffffffffffffffffffffffff169050919050565b61097061096a6114fc565b82611b93565b50565b60006109c161013160008473ffffffffffffffffffffffffffffffffffffffff1673ffffffffffffffffffffffffffffffffffffffff16815260200190815260200160002080549050611cae565b9050919050565b6000603360008373ffffffffffffffffffffffffffffffffffffffff1673ffffffffffffffffffffffffffffffffffffffff168152602001908152602001600020549050919050565b610a196114fc565b73ffffffffffffffffffffffffffffffffffffffff16610a37610b09565b73ffffffffffffffffffffffffffffffffffffffff1614610a8d576040517f08c379a0000000000000000000000000000000000000000000000000000000008152600401610a8490613dcf565b60405180910390fd5b610a976000611d01565b565b610aab82610aa56114fc565b836116cf565b610ab58282611b85565b5050565b6000610b0260fd60008473ffffffffffffffffffffffffffffffffffffffff1673ffffffffffffffffffffffffffffffffffffffff168152602001908152602001600020611dc7565b9050919050565b6000609760009054906101000a900473ffffffffffffffffffffffffffffffffffffffff16905090565b6000438210610b77576040517f08c379a0000000000000000000000000000000000000000000000000000000008152600401610b6e90613bef565b60405180910390fd5b610b8361013283611a1f565b9050919050565b606060378054610b9990614130565b80601f0160208091040260200160405190810160405280929190818152602001828054610bc590614130565b8015610c125780601f10610be757610100808354040283529160200191610c12565b820191906000526020600020905b815481529060010190602001808311610bf557829003601f168201915b5050505050905090565b60008061013160008473ffffffffffffffffffffffffffffffffffffffff1673ffffffffffffffffffffffffffffffffffffffff16815260200190815260200160002080549050905060008114610d2c5761013160008473ffffffffffffffffffffffffffffffffffffffff1673ffffffffffffffffffffffffffffffffffffffff168152602001908152602001600020600182610cba9190614032565b81548110610cf1577f4e487b7100000000000000000000000000000000000000000000000000000000600052603260045260246000fd5b9060005260206000200160000160049054906101000a90047bffffffffffffffffffffffffffffffffffffffffffffffffffffffff16610d2f565b60005b7bffffffffffffffffffffffffffffffffffffffffffffffffffffffff16915050919050565b600080610d606114fc565b90506000603460008373ffffffffffffffffffffffffffffffffffffffff1673ffffffffffffffffffffffffffffffffffffffff16815260200190815260200160002060008673ffffffffffffffffffffffffffffffffffffffff1673ffffffffffffffffffffffffffffffffffffffff16815260200190815260200160002054905083811015610e26576040517f08c379a0000000000000000000000000000000000000000000000000000000008152600401610e1d90613eaf565b60405180910390fd5b610e338286868403611504565b60019250505092915050565b600080610e4a6114fc565b9050610e5781858561175b565b600191505092915050565b600060019054906101000a900460ff16610e8a5760008054906101000a900460ff1615610e93565b610e92611dd5565b5b610ed2576040517f08c379a0000000000000000000000000000000000000000000000000000000008152600401610ec990613d4f565b60405180910390fd5b60008060019054906101000a900460ff161590508015610f22576001600060016101000a81548160ff02191690831515021790555060016000806101000a81548160ff0219169083151502179055505b610f966040518060400160405280600681526020017f41424b6f696e00000000000000000000000000000000000000000000000000008152506040518060400160405280600381526020017f41424b0000000000000000000000000000000000000000000000000000000000815250611de6565b610f9e611e43565b610fa6611e94565b610fe46040518060400160405280600681526020017f41424b6f696e0000000000000000000000000000000000000000000000000000815250611eed565b610fee8385611b77565b610ff782611404565b80156110185760008060016101000a81548160ff0219169083151502179055505b50505050565b83421115611061576040517f08c379a000000000000000000000000000000000000000000000000000000000815260040161105890613c0f565b60405180910390fd5b60006110c36110bb7fe48329057bfd03d55e49b547132e39cffd9c1820ad7b9d4c5307691425d15adf8989896040516020016110a09493929190613ab0565b60405160208183030381529060405280519060200120611f87565b858585611fa1565b90506110ce81611fcc565b861461110f576040517f08c379a000000000000000000000000000000000000000000000000000000000815260040161110690613c6f565b60405180910390fd5b6111198188611b93565b50505050505050565b83421115611165576040517f08c379a000000000000000000000000000000000000000000000000000000000815260040161115c90613cef565b60405180910390fd5b600060fe548888886111768c611fcc565b8960405160200161118c96959493929190613a4f565b60405160208183030381529060405280519060200120905060006111af82611f87565b905060006111bf82878787611fa1565b90508973ffffffffffffffffffffffffffffffffffffffff168173ffffffffffffffffffffffffffffffffffffffff161461122f576040517f08c379a000000000000000000000000000000000000000000000000000000000815260040161122690613d8f565b60405180910390fd5b61123a8a8a8a611504565b50505050505050505050565b6000603460008473ffffffffffffffffffffffffffffffffffffffff1673ffffffffffffffffffffffffffffffffffffffff16815260200190815260200160002060008373ffffffffffffffffffffffffffffffffffffffff1673ffffffffffffffffffffffffffffffffffffffff16815260200190815260200160002054905092915050565b6112d561310a565b61013160008473ffffffffffffffffffffffffffffffffffffffff1673ffffffffffffffffffffffffffffffffffffffff1681526020019081526020016000208263ffffffff1681548110611353577f4e487b7100000000000000000000000000000000000000000000000000000000600052603260045260246000fd5b906000526020600020016040518060400160405290816000820160009054906101000a900463ffffffff1663ffffffff1663ffffffff1681526020016000820160049054906101000a90047bffffffffffffffffffffffffffffffffffffffffffffffffffffffff167bffffffffffffffffffffffffffffffffffffffffffffffffffffffff167bffffffffffffffffffffffffffffffffffffffffffffffffffffffff1681525050905092915050565b61140c6114fc565b73ffffffffffffffffffffffffffffffffffffffff1661142a610b09565b73ffffffffffffffffffffffffffffffffffffffff1614611480576040517f08c379a000000000000000000000000000000000000000000000000000000000815260040161147790613dcf565b60405180910390fd5b600073ffffffffffffffffffffffffffffffffffffffff168173ffffffffffffffffffffffffffffffffffffffff1614156114f0576040517f08c379a00000000000000000000000000000000000000000000000000000000081526004016114e790613c8f565b60405180910390fd5b6114f981611d01565b50565b600033905090565b600073ffffffffffffffffffffffffffffffffffffffff168373ffffffffffffffffffffffffffffffffffffffff161415611574576040517f08c379a000000000000000000000000000000000000000000000000000000000815260040161156b90613e6f565b60405180910390fd5b600073ffffffffffffffffffffffffffffffffffffffff168273ffffffffffffffffffffffffffffffffffffffff1614156115e4576040517f08c379a00000000000000000000000000000000000000000000000000000000081526004016115db90613caf565b60405180910390fd5b80603460008573ffffffffffffffffffffffffffffffffffffffff1673ffffffffffffffffffffffffffffffffffffffff16815260200190815260200160002060008473ffffffffffffffffffffffffffffffffffffffff1673ffffffffffffffffffffffffffffffffffffffff168152602001908152602001600020819055508173ffffffffffffffffffffffffffffffffffffffff168373ffffffffffffffffffffffffffffffffffffffff167f8c5be1e5ebec7d5bd14f71427d1e84f3dd0314c0f7b2291e5b200ac8c7c3b925836040516116c29190613f0a565b60405180910390a3505050565b60006116db8484611246565b90507fffffffffffffffffffffffffffffffffffffffffffffffffffffffffffffffff81146117555781811015611747576040517f08c379a000000000000000000000000000000000000000000000000000000000815260040161173e90613ccf565b60405180910390fd5b6117548484848403611504565b5b50505050565b600073ffffffffffffffffffffffffffffffffffffffff168373ffffffffffffffffffffffffffffffffffffffff1614156117cb576040517f08c379a00000000000000000000000000000000000000000000000000000000081526004016117c290613e2f565b60405180910390fd5b600073ffffffffffffffffffffffffffffffffffffffff168273ffffffffffffffffffffffffffffffffffffffff16141561183b576040517f08c379a000000000000000000000000000000000000000000000000000000000815260040161183290613bcf565b60405180910390fd5b61184683838361202a565b6000603360008573ffffffffffffffffffffffffffffffffffffffff1673ffffffffffffffffffffffffffffffffffffffff168152602001908152602001600020549050818110156118cd576040517f08c379a00000000000000000000000000000000000000000000000000000000081526004016118c490613d0f565b60405180910390fd5b818103603360008673ffffffffffffffffffffffffffffffffffffffff1673ffffffffffffffffffffffffffffffffffffffff1681526020019081526020016000208190555081603360008573ffffffffffffffffffffffffffffffffffffffff1673ffffffffffffffffffffffffffffffffffffffff16815260200190815260200160002060008282546119629190613fab565b925050819055508273ffffffffffffffffffffffffffffffffffffffff168473ffffffffffffffffffffffffffffffffffffffff167fddf252ad1be2c89b69c2b068fc378daa952ba7f163c4a11628f55a4df523b3ef846040516119c69190613f0a565b60405180910390a36119d984848461202f565b50505050565b6000611a1a7f8b73c3c69bb8fe3d512ecc4cf759cc79239f7b179b0ffacaa9a75d522b39400f611a0d61203f565b611a15612049565b612053565b905090565b6000808380549050905060005b81811015611ac4576000611a40828461208d565b905084868281548110611a7c577f4e487b7100000000000000000000000000000000000000000000000000000000600052603260045260246000fd5b9060005260206000200160000160009054906101000a900463ffffffff1663ffffffff161115611aae57809250611abe565b600181611abb9190613fab565b91505b50611a2c565b60008214611b4c5784600183611ada9190614032565b81548110611b11577f4e487b7100000000000000000000000000000000000000000000000000000000600052603260045260246000fd5b9060005260206000200160000160049054906101000a90047bffffffffffffffffffffffffffffffffffffffffffffffffffffffff16611b4f565b60005b7bffffffffffffffffffffffffffffffffffffffffffffffffffffffff169250505092915050565b611b8182826120b3565b5050565b611b8f8282612141565b5050565b6000611b9e836108f5565b90506000611bab846109c8565b90508261013060008673ffffffffffffffffffffffffffffffffffffffff1673ffffffffffffffffffffffffffffffffffffffff16815260200190815260200160002060006101000a81548173ffffffffffffffffffffffffffffffffffffffff021916908373ffffffffffffffffffffffffffffffffffffffff1602179055508273ffffffffffffffffffffffffffffffffffffffff168273ffffffffffffffffffffffffffffffffffffffff168573ffffffffffffffffffffffffffffffffffffffff167f3134e8a2e6d97e929a7e54011ea5485d7d196dd5f0ba4d4ef95803e8e3fc257f60405160405180910390a4611ca8828483612160565b50505050565b600063ffffffff8016821115611cf9576040517f08c379a0000000000000000000000000000000000000000000000000000000008152600401611cf090613e4f565b60405180910390fd5b819050919050565b6000609760009054906101000a900473ffffffffffffffffffffffffffffffffffffffff16905081609760006101000a81548173ffffffffffffffffffffffffffffffffffffffff021916908373ffffffffffffffffffffffffffffffffffffffff1602179055508173ffffffffffffffffffffffffffffffffffffffff168173ffffffffffffffffffffffffffffffffffffffff167f8be0079c531659141344cd1fd0a4f28419497f9722a3daafe3b4186f6b6457e060405160405180910390a35050565b600081600001549050919050565b6000611de03061235b565b15905090565b600060019054906101000a900460ff16611e35576040517f08c379a0000000000000000000000000000000000000000000000000000000008152600401611e2c90613e8f565b60405180910390fd5b611e3f828261237e565b5050565b600060019054906101000a900460ff16611e92576040517f08c379a0000000000000000000000000000000000000000000000000000000008152600401611e8990613e8f565b60405180910390fd5b565b600060019054906101000a900460ff16611ee3576040517f08c379a0000000000000000000000000000000000000000000000000000000008152600401611eda90613e8f565b60405180910390fd5b611eeb6123ff565b565b600060019054906101000a900460ff16611f3c576040517f08c379a0000000000000000000000000000000000000000000000000000000008152600401611f3390613e8f565b60405180910390fd5b611f7b816040518060400160405280600181526020017f3100000000000000000000000000000000000000000000000000000000000000815250612460565b611f84816124db565b50565b6000611f9a611f946119df565b83612554565b9050919050565b6000806000611fb287878787612587565b91509150611fbf81612694565b8192505050949350505050565b60008060fd60008473ffffffffffffffffffffffffffffffffffffffff1673ffffffffffffffffffffffffffffffffffffffff168152602001908152602001600020905061201981611dc7565b9150612024816129e5565b50919050565b505050565b61203a8383836129fb565b505050565b600060c954905090565b600060ca54905090565b6000838383463060405160200161206e959493929190613af5565b6040516020818303038152906040528051906020012090509392505050565b6000600282841861209e9190614001565b8284166120ab9190613fab565b905092915050565b6120bd8282612a26565b6120c5612b87565b7bffffffffffffffffffffffffffffffffffffffffffffffffffffffff166120eb6106c7565b111561212c576040517f08c379a000000000000000000000000000000000000000000000000000000000815260040161212390613daf565b60405180910390fd5b61213b610132612bab83612bc1565b50505050565b61214b8282612eab565b61215a61013261308483612bc1565b50505050565b8173ffffffffffffffffffffffffffffffffffffffff168373ffffffffffffffffffffffffffffffffffffffff161415801561219c5750600081115b1561235657600073ffffffffffffffffffffffffffffffffffffffff168373ffffffffffffffffffffffffffffffffffffffff161461227b5760008061222461013160008773ffffffffffffffffffffffffffffffffffffffff1673ffffffffffffffffffffffffffffffffffffffff16815260200190815260200160002061308485612bc1565b915091508473ffffffffffffffffffffffffffffffffffffffff167fdec2bacdd2f05b59de34da9b523dff8be42e5e38e818c82fdb0bae774387a7248383604051612270929190613f25565b60405180910390a250505b600073ffffffffffffffffffffffffffffffffffffffff168273ffffffffffffffffffffffffffffffffffffffff1614612355576000806122fe61013160008673ffffffffffffffffffffffffffffffffffffffff1673ffffffffffffffffffffffffffffffffffffffff168152602001908152602001600020612bab85612bc1565b915091508373ffffffffffffffffffffffffffffffffffffffff167fdec2bacdd2f05b59de34da9b523dff8be42e5e38e818c82fdb0bae774387a724838360405161234a929190613f25565b60405180910390a250505b5b505050565b6000808273ffffffffffffffffffffffffffffffffffffffff163b119050919050565b600060019054906101000a900460ff166123cd576040517f08c379a00000000000000000000000000000000000000000000000000000000081526004016123c490613e8f565b60405180910390fd5b81603690805190602001906123e3929190613148565b5080603790805190602001906123fa929190613148565b505050565b600060019054906101000a900460ff1661244e576040517f08c379a000000000000000000000000000000000000000000000000000000000815260040161244590613e8f565b60405180910390fd5b61245e6124596114fc565b611d01565b565b600060019054906101000a900460ff166124af576040517f08c379a00000000000000000000000000000000000000000000000000000000081526004016124a690613e8f565b60405180910390fd5b6000828051906020012090506000828051906020012090508160c9819055508060ca8190555050505050565b600060019054906101000a900460ff1661252a576040517f08c379a000000000000000000000000000000000000000000000000000000000815260040161252190613e8f565b60405180910390fd5b7f6e71edae12b1b97f4d1f60370fef10105fa2faae0126114a169c64845d6126c960fe8190555050565b600082826040516020016125699291906139c7565b60405160208183030381529060405280519060200120905092915050565b6000807f7fffffffffffffffffffffffffffffff5d576e7357a4501ddfe92f46681b20a08360001c11156125c257600060039150915061268b565b601b8560ff16141580156125da5750601c8560ff1614155b156125ec57600060049150915061268b565b6000600187878787604051600081526020016040526040516126119493929190613b48565b6020604051602081039080840390855afa158015612633573d6000803e3d6000fd5b505050602060405103519050600073ffffffffffffffffffffffffffffffffffffffff168173ffffffffffffffffffffffffffffffffffffffff1614156126825760006001925092505061268b565b80600092509250505b94509492505050565b600060048111156126ce577f4e487b7100000000000000000000000000000000000000000000000000000000600052602160045260246000fd5b816004811115612707577f4e487b7100000000000000000000000000000000000000000000000000000000600052602160045260246000fd5b1415612712576129e2565b6001600481111561274c577f4e487b7100000000000000000000000000000000000000000000000000000000600052602160045260246000fd5b816004811115612785577f4e487b7100000000000000000000000000000000000000000000000000000000600052602160045260246000fd5b14156127c6576040517f08c379a00000000000000000000000000000000000000000000000000000000081526004016127bd90613baf565b60405180910390fd5b60026004811115612800577f4e487b7100000000000000000000000000000000000000000000000000000000600052602160045260246000fd5b816004811115612839577f4e487b7100000000000000000000000000000000000000000000000000000000600052602160045260246000fd5b141561287a576040517f08c379a000000000000000000000000000000000000000000000000000000000815260040161287190613c4f565b60405180910390fd5b600360048111156128b4577f4e487b7100000000000000000000000000000000000000000000000000000000600052602160045260246000fd5b8160048111156128ed577f4e487b7100000000000000000000000000000000000000000000000000000000600052602160045260246000fd5b141561292e576040517f08c379a000000000000000000000000000000000000000000000000000000000815260040161292590613d2f565b60405180910390fd5b600480811115612967577f4e487b7100000000000000000000000000000000000000000000000000000000600052602160045260246000fd5b8160048111156129a0577f4e487b7100000000000000000000000000000000000000000000000000000000600052602160045260246000fd5b14156129e1576040517f08c379a00000000000000000000000000000000000000000000000000000000081526004016129d890613d6f565b60405180910390fd5b5b50565b6001816000016000828254019250508190555050565b612a0683838361309a565b612a21612a12846108f5565b612a1b846108f5565b83612160565b505050565b600073ffffffffffffffffffffffffffffffffffffffff168273ffffffffffffffffffffffffffffffffffffffff161415612a96576040517f08c379a0000000000000000000000000000000000000000000000000000000008152600401612a8d90613ecf565b60405180910390fd5b612aa26000838361202a565b8060356000828254612ab49190613fab565b9250508190555080603360008473ffffffffffffffffffffffffffffffffffffffff1673ffffffffffffffffffffffffffffffffffffffff1681526020019081526020016000206000828254612b0a9190613fab565b925050819055508173ffffffffffffffffffffffffffffffffffffffff16600073ffffffffffffffffffffffffffffffffffffffff167fddf252ad1be2c89b69c2b068fc378daa952ba7f163c4a11628f55a4df523b3ef83604051612b6f9190613f0a565b60405180910390a3612b836000838361202f565b5050565b60007bffffffffffffffffffffffffffffffffffffffffffffffffffffffff905090565b60008183612bb99190613fab565b905092915050565b60008060008580549050905060008114612c555785600182612be39190614032565b81548110612c1a577f4e487b7100000000000000000000000000000000000000000000000000000000600052603260045260246000fd5b9060005260206000200160000160049054906101000a90047bffffffffffffffffffffffffffffffffffffffffffffffffffffffff16612c58565b60005b7bffffffffffffffffffffffffffffffffffffffffffffffffffffffff169250612c8683858763ffffffff16565b9150600081118015612cff57504386600183612ca29190614032565b81548110612cd9577f4e487b7100000000000000000000000000000000000000000000000000000000600052603260045260246000fd5b9060005260206000200160000160009054906101000a900463ffffffff1663ffffffff16145b15612db257612d0d8261309f565b86600183612d1b9190614032565b81548110612d52577f4e487b7100000000000000000000000000000000000000000000000000000000600052603260045260246000fd5b9060005260206000200160000160046101000a8154817bffffffffffffffffffffffffffffffffffffffffffffffffffffffff02191690837bffffffffffffffffffffffffffffffffffffffffffffffffffffffff160217905550612ea2565b856040518060400160405280612dc743611cae565b63ffffffff168152602001612ddb8561309f565b7bffffffffffffffffffffffffffffffffffffffffffffffffffffffff168152509080600181540180825580915050600190039060005260206000200160009091909190915060008201518160000160006101000a81548163ffffffff021916908363ffffffff16021790555060208201518160000160046101000a8154817bffffffffffffffffffffffffffffffffffffffffffffffffffffffff02191690837bffffffffffffffffffffffffffffffffffffffffffffffffffffffff16021790555050505b50935093915050565b600073ffffffffffffffffffffffffffffffffffffffff168273ffffffffffffffffffffffffffffffffffffffff161415612f1b576040517f08c379a0000000000000000000000000000000000000000000000000000000008152600401612f1290613e0f565b60405180910390fd5b612f278260008361202a565b6000603360008473ffffffffffffffffffffffffffffffffffffffff1673ffffffffffffffffffffffffffffffffffffffff16815260200190815260200160002054905081811015612fae576040517f08c379a0000000000000000000000000000000000000000000000000000000008152600401612fa590613c2f565b60405180910390fd5b818103603360008573ffffffffffffffffffffffffffffffffffffffff1673ffffffffffffffffffffffffffffffffffffffff1681526020019081526020016000208190555081603560008282546130069190614032565b92505081905550600073ffffffffffffffffffffffffffffffffffffffff168373ffffffffffffffffffffffffffffffffffffffff167fddf252ad1be2c89b69c2b068fc378daa952ba7f163c4a11628f55a4df523b3ef8460405161306b9190613f0a565b60405180910390a361307f8360008461202f565b505050565b600081836130929190614032565b905092915050565b505050565b60007bffffffffffffffffffffffffffffffffffffffffffffffffffffffff8016821115613102576040517f08c379a00000000000000000000000000000000000000000000000000000000081526004016130f990613def565b60405180910390fd5b819050919050565b6040518060400160405280600063ffffffff16815260200160007bffffffffffffffffffffffffffffffffffffffffffffffffffffffff1681525090565b82805461315490614130565b90600052602060002090601f01602090048101928261317657600085556131bd565b82601f1061318f57805160ff19168380011785556131bd565b828001600101855582156131bd579182015b828111156131bc5782518255916020019190600101906131a1565b5b5090506131ca91906131ce565b5090565b5b808211156131e75760008160009055506001016131cf565b5090565b6000813590506131fa816148bd565b92915050565b60008135905061320f816148d4565b92915050565b600081359050613224816148eb565b92915050565b60008135905061323981614902565b92915050565b60008135905061324e81614919565b92915050565b60006020828403121561326657600080fd5b6000613274848285016131eb565b91505092915050565b6000806040838503121561329057600080fd5b600061329e858286016131eb565b92505060206132af858286016131eb565b9150509250929050565b6000806000606084860312156132ce57600080fd5b60006132dc868287016131eb565b93505060206132ed868287016131eb565b92505060406132fe86828701613215565b9150509250925092565b600080600080600080600060e0888a03121561332357600080fd5b60006133318a828b016131eb565b97505060206133428a828b016131eb565b96505060406133538a828b01613215565b95505060606133648a828b01613215565b94505060806133758a828b0161323f565b93505060a06133868a828b01613200565b92505060c06133978a828b01613200565b91505092959891949750929550565b600080604083850312156133b957600080fd5b60006133c7858286016131eb565b92505060206133d885828601613215565b9150509250929050565b60008060008060008060c087890312156133fb57600080fd5b600061340989828a016131eb565b965050602061341a89828a01613215565b955050604061342b89828a01613215565b945050606061343c89828a0161323f565b935050608061344d89828a01613200565b92505060a061345e89828a01613200565b9150509295509295509295565b6000806040838503121561347e57600080fd5b600061348c858286016131eb565b925050602061349d8582860161322a565b9150509250929050565b6000602082840312156134b957600080fd5b60006134c784828501613215565b91505092915050565b6000806000606084860312156134e557600080fd5b60006134f386828701613215565b9350506020613504868287016131eb565b9250506040613515868287016131eb565b9150509250925092565b61352881614066565b82525050565b61353781614078565b82525050565b61354681614084565b82525050565b61355d61355882614084565b614162565b82525050565b600061356e82613f84565b6135788185613f8f565b93506135888185602086016140fd565b613591816141f9565b840191505092915050565b60006135a9601883613f8f565b91506135b48261420a565b602082019050919050565b60006135cc602383613f8f565b91506135d782614233565b604082019050919050565b60006135ef601f83613f8f565b91506135fa82614282565b602082019050919050565b6000613612601d83613f8f565b915061361d826142ab565b602082019050919050565b6000613635602283613f8f565b9150613640826142d4565b604082019050919050565b6000613658601f83613f8f565b915061366382614323565b602082019050919050565b600061367b601983613f8f565b91506136868261434c565b602082019050919050565b600061369e602683613f8f565b91506136a982614375565b604082019050919050565b60006136c1602283613f8f565b91506136cc826143c4565b604082019050919050565b60006136e4600283613fa0565b91506136ef82614413565b600282019050919050565b6000613707601d83613f8f565b91506137128261443c565b602082019050919050565b600061372a601d83613f8f565b915061373582614465565b602082019050919050565b600061374d602683613f8f565b91506137588261448e565b604082019050919050565b6000613770602283613f8f565b915061377b826144dd565b604082019050919050565b6000613793602e83613f8f565b915061379e8261452c565b604082019050919050565b60006137b6602283613f8f565b91506137c18261457b565b604082019050919050565b60006137d9601e83613f8f565b91506137e4826145ca565b602082019050919050565b60006137fc603083613f8f565b9150613807826145f3565b604082019050919050565b600061381f602083613f8f565b915061382a82614642565b602082019050919050565b6000613842602783613f8f565b915061384d8261466b565b604082019050919050565b6000613865602183613f8f565b9150613870826146ba565b604082019050919050565b6000613888602583613f8f565b915061389382614709565b604082019050919050565b60006138ab602683613f8f565b91506138b682614758565b604082019050919050565b60006138ce602483613f8f565b91506138d9826147a7565b604082019050919050565b60006138f1602b83613f8f565b91506138fc826147f6565b604082019050919050565b6000613914602583613f8f565b915061391f82614845565b604082019050919050565b6000613937601f83613f8f565b915061394282614894565b602082019050919050565b604082016000820151613963600085018261399a565b506020820151613976602085018261397c565b50505050565b613985816140ae565b82525050565b613994816140d6565b82525050565b6139a3816140e0565b82525050565b6139b2816140e0565b82525050565b6139c1816140f0565b82525050565b60006139d2826136d7565b91506139de828561354c565b6020820191506139ee828461354c565b6020820191508190509392505050565b6000602082019050613a13600083018461351f565b92915050565b6000602082019050613a2e600083018461352e565b92915050565b6000602082019050613a49600083018461353d565b92915050565b600060c082019050613a64600083018961353d565b613a71602083018861351f565b613a7e604083018761351f565b613a8b606083018661398b565b613a98608083018561398b565b613aa560a083018461398b565b979650505050505050565b6000608082019050613ac5600083018761353d565b613ad2602083018661351f565b613adf604083018561398b565b613aec606083018461398b565b95945050505050565b600060a082019050613b0a600083018861353d565b613b17602083018761353d565b613b24604083018661353d565b613b31606083018561398b565b613b3e608083018461351f565b9695505050505050565b6000608082019050613b5d600083018761353d565b613b6a60208301866139b8565b613b77604083018561353d565b613b84606083018461353d565b95945050505050565b60006020820190508181036000830152613ba78184613563565b905092915050565b60006020820190508181036000830152613bc88161359c565b9050919050565b60006020820190508181036000830152613be8816135bf565b9050919050565b60006020820190508181036000830152613c08816135e2565b9050919050565b60006020820190508181036000830152613c2881613605565b9050919050565b60006020820190508181036000830152613c4881613628565b9050919050565b60006020820190508181036000830152613c688161364b565b9050919050565b60006020820190508181036000830152613c888161366e565b9050919050565b60006020820190508181036000830152613ca881613691565b9050919050565b60006020820190508181036000830152613cc8816136b4565b9050919050565b60006020820190508181036000830152613ce8816136fa565b9050919050565b60006020820190508181036000830152613d088161371d565b9050919050565b60006020820190508181036000830152613d2881613740565b9050919050565b60006020820190508181036000830152613d4881613763565b9050919050565b60006020820190508181036000830152613d6881613786565b9050919050565b60006020820190508181036000830152613d88816137a9565b9050919050565b60006020820190508181036000830152613da8816137cc565b9050919050565b60006020820190508181036000830152613dc8816137ef565b9050919050565b60006020820190508181036000830152613de881613812565b9050919050565b60006020820190508181036000830152613e0881613835565b9050919050565b60006020820190508181036000830152613e2881613858565b9050919050565b60006020820190508181036000830152613e488161387b565b9050919050565b60006020820190508181036000830152613e688161389e565b9050919050565b60006020820190508181036000830152613e88816138c1565b9050919050565b60006020820190508181036000830152613ea8816138e4565b9050919050565b60006020820190508181036000830152613ec881613907565b9050919050565b60006020820190508181036000830152613ee88161392a565b9050919050565b6000604082019050613f04600083018461394d565b92915050565b6000602082019050613f1f600083018461398b565b92915050565b6000604082019050613f3a600083018561398b565b613f47602083018461398b565b9392505050565b6000602082019050613f6360008301846139a9565b92915050565b6000602082019050613f7e60008301846139b8565b92915050565b600081519050919050565b600082825260208201905092915050565b600081905092915050565b6000613fb6826140d6565b9150613fc1836140d6565b9250827fffffffffffffffffffffffffffffffffffffffffffffffffffffffffffffffff03821115613ff657613ff561416c565b5b828201905092915050565b600061400c826140d6565b9150614017836140d6565b9250826140275761402661419b565b5b828204905092915050565b600061403d826140d6565b9150614048836140d6565b92508282101561405b5761405a61416c565b5b828203905092915050565b60006140718261408e565b9050919050565b60008115159050919050565b6000819050919050565b600073ffffffffffffffffffffffffffffffffffffffff82169050919050565b60007bffffffffffffffffffffffffffffffffffffffffffffffffffffffff82169050919050565b6000819050919050565b600063ffffffff82169050919050565b600060ff82169050919050565b60005b8381101561411b578082015181840152602081019050614100565b8381111561412a576000848401525b50505050565b6000600282049050600182168061414857607f821691505b6020821081141561415c5761415b6141ca565b5b50919050565b6000819050919050565b7f4e487b7100000000000000000000000000000000000000000000000000000000600052601160045260246000fd5b7f4e487b7100000000000000000000000000000000000000000000000000000000600052601260045260246000fd5b7f4e487b7100000000000000000000000000000000000000000000000000000000600052602260045260246000fd5b6000601f19601f8301169050919050565b7f45434453413a20696e76616c6964207369676e61747572650000000000000000600082015250565b7f45524332303a207472616e7366657220746f20746865207a65726f206164647260008201527f6573730000000000000000000000000000000000000000000000000000000000602082015250565b7f4552433230566f7465733a20626c6f636b206e6f7420796574206d696e656400600082015250565b7f4552433230566f7465733a207369676e61747572652065787069726564000000600082015250565b7f45524332303a206275726e20616d6f756e7420657863656564732062616c616e60008201527f6365000000000000000000000000000000000000000000000000000000000000602082015250565b7f45434453413a20696e76616c6964207369676e6174757265206c656e67746800600082015250565b7f4552433230566f7465733a20696e76616c6964206e6f6e636500000000000000600082015250565b7f4f776e61626c653a206e6577206f776e657220697320746865207a65726f206160008201527f6464726573730000000000000000000000000000000000000000000000000000602082015250565b7f45524332303a20617070726f766520746f20746865207a65726f20616464726560008201527f7373000000000000000000000000000000000000000000000000000000000000602082015250565b7f1901000000000000000000000000000000000000000000000000000000000000600082015250565b7f45524332303a20696e73756666696369656e7420616c6c6f77616e6365000000600082015250565b7f45524332305065726d69743a206578706972656420646561646c696e65000000600082015250565b7f45524332303a207472616e7366657220616d6f756e742065786365656473206260008201527f616c616e63650000000000000000000000000000000000000000000000000000602082015250565b7f45434453413a20696e76616c6964207369676e6174757265202773272076616c60008201527f7565000000000000000000000000000000000000000000000000000000000000602082015250565b7f496e697469616c697a61626c653a20636f6e747261637420697320616c72656160008201527f647920696e697469616c697a6564000000000000000000000000000000000000602082015250565b7f45434453413a20696e76616c6964207369676e6174757265202776272076616c60008201527f7565000000000000000000000000000000000000000000000000000000000000602082015250565b7f45524332305065726d69743a20696e76616c6964207369676e61747572650000600082015250565b7f4552433230566f7465733a20746f74616c20737570706c79207269736b73206f60008201527f766572666c6f77696e6720766f74657300000000000000000000000000000000602082015250565b7f4f776e61626c653a2063616c6c6572206973206e6f7420746865206f776e6572600082015250565b7f53616665436173743a2076616c756520646f65736e27742066697420696e203260008201527f3234206269747300000000000000000000000000000000000000000000000000602082015250565b7f45524332303a206275726e2066726f6d20746865207a65726f2061646472657360008201527f7300000000000000000000000000000000000000000000000000000000000000602082015250565b7f45524332303a207472616e736665722066726f6d20746865207a65726f20616460008201527f6472657373000000000000000000000000000000000000000000000000000000602082015250565b7f53616665436173743a2076616c756520646f65736e27742066697420696e203360008201527f3220626974730000000000000000000000000000000000000000000000000000602082015250565b7f45524332303a20617070726f76652066726f6d20746865207a65726f2061646460008201527f7265737300000000000000000000000000000000000000000000000000000000602082015250565b7f496e697469616c697a61626c653a20636f6e7472616374206973206e6f74206960008201527f6e697469616c697a696e67000000000000000000000000000000000000000000602082015250565b7f45524332303a2064656372656173656420616c6c6f77616e63652062656c6f7760008201527f207a65726f000000000000000000000000000000000000000000000000000000602082015250565b7f45524332303a206d696e7420746f20746865207a65726f206164647265737300600082015250565b6148c681614066565b81146148d157600080fd5b50565b6148dd81614084565b81146148e857600080fd5b50565b6148f4816140d6565b81146148ff57600080fd5b50565b61490b816140e0565b811461491657600080fd5b50565b614922816140f0565b811461492d57600080fd5b5056fea2646970667358221220cffe4a85ba2b079ad58867423685cacdc29384cf4caa76582708e38119df2eda64736f6c63430008040033",
  "linkReferences": {},
  "deployedLinkReferences": {}
}