{
  "_format": "hh-sol-artifact-1",
  "contractName": "AuctionHouse",
  "sourceName": "contracts/AuctionHouse.sol",
  "abi": [
    {
      "inputs": [],
      "stateMutability": "nonpayable",
      "type": "constructor"
    },
    {
      "anonymous": false,
      "inputs": [
        {
          "indexed": true,
          "internalType": "uint256",
          "name": "auctionId",
          "type": "uint256"
        },
        {
          "indexed": false,
          "internalType": "uint256",
          "name": "price",
          "type": "uint256"
        }
      ],
      "name": "DutchAuctionItemBought",
      "type": "event"
    },
    {
      "anonymous": false,
      "inputs": [
        {
          "indexed": true,
          "internalType": "uint256",
          "name": "requestId",
          "type": "uint256"
        },
        {
          "indexed": true,
          "internalType": "uint256",
          "name": "auctionId",
          "type": "uint256"
        },
        {
          "indexed": false,
          "internalType": "uint256",
          "name": "initialPrice",
          "type": "uint256"
        }
      ],
      "name": "DutchAuctionItemCreated",
      "type": "event"
    },
    {
      "anonymous": false,
      "inputs": [
        {
          "indexed": true,
          "internalType": "uint256",
          "name": "auctionId",
          "type": "uint256"
        },
        {
          "indexed": false,
          "internalType": "uint256",
          "name": "finishedBid",
          "type": "uint256"
        }
      ],
      "name": "EnglishAuctionEnded",
      "type": "event"
    },
    {
      "anonymous": false,
      "inputs": [
        {
          "indexed": true,
          "internalType": "uint256",
          "name": "auctionId",
          "type": "uint256"
        },
        {
          "indexed": false,
          "internalType": "uint256",
          "name": "bid",
          "type": "uint256"
        }
      ],
      "name": "EnglishAuctionItemBidded",
      "type": "event"
    },
    {
      "anonymous": false,
      "inputs": [
        {
          "indexed": true,
          "internalType": "uint256",
          "name": "requestId",
          "type": "uint256"
        },
        {
          "indexed": true,
          "internalType": "uint256",
          "name": "auctionId",
          "type": "uint256"
        },
        {
          "indexed": false,
          "internalType": "uint256",
          "name": "startinBid",
          "type": "uint256"
        }
      ],
      "name": "EnglishAuctionItemCreated",
      "type": "event"
    },
    {
      "inputs": [],
      "name": "ABK",
      "outputs": [
        {
          "internalType": "contract ABKoin",
          "name": "",
          "type": "address"
        }
      ],
      "stateMutability": "view",
      "type": "function"
    },
    {
      "inputs": [],
      "name": "ADD_TIME",
      "outputs": [
        {
          "internalType": "uint256",
          "name": "",
          "type": "uint256"
        }
      ],
      "stateMutability": "view",
      "type": "function"
    },
    {
      "inputs": [],
      "name": "DURATION",
      "outputs": [
        {
          "internalType": "uint256",
          "name": "",
          "type": "uint256"
        }
      ],
      "stateMutability": "view",
      "type": "function"
    },
    {
      "inputs": [],
      "name": "MIN_PRICE",
      "outputs": [
        {
          "internalType": "uint256",
          "name": "",
          "type": "uint256"
        }
      ],
      "stateMutability": "view",
      "type": "function"
    },
    {
      "inputs": [
        {
          "internalType": "uint256",
          "name": "_auctionId",
          "type": "uint256"
        },
        {
          "internalType": "uint256",
          "name": "_bid",
          "type": "uint256"
        }
      ],
      "name": "bidEnglishAuction",
      "outputs": [],
      "stateMutability": "nonpayable",
      "type": "function"
    },
    {
      "inputs": [
        {
          "internalType": "uint256",
          "name": "_auctionId",
          "type": "uint256"
        }
      ],
      "name": "buyDutchAuction",
      "outputs": [],
      "stateMutability": "nonpayable",
      "type": "function"
    },
    {
      "inputs": [],
      "name": "endAllEndedAuctions",
      "outputs": [],
      "stateMutability": "nonpayable",
      "type": "function"
    },
    {
      "inputs": [
        {
          "internalType": "uint256",
          "name": "_auctionId",
          "type": "uint256"
        }
      ],
      "name": "endEnglishAuction",
      "outputs": [],
      "stateMutability": "nonpayable",
      "type": "function"
    },
    {
      "inputs": [
        {
          "internalType": "uint256",
          "name": "auctionId",
          "type": "uint256"
        }
      ],
      "name": "getDutchAuction",
      "outputs": [
        {
          "components": [
            {
              "internalType": "uint256",
              "name": "requestId",
              "type": "uint256"
            },
            {
              "internalType": "uint256",
              "name": "initialPrice",
              "type": "uint256"
            },
            {
              "internalType": "uint256",
              "name": "startAt",
              "type": "uint256"
            },
            {
              "internalType": "uint256",
              "name": "boughtPrice",
              "type": "uint256"
            },
            {
              "internalType": "address",
              "name": "buyer",
              "type": "address"
            },
            {
              "internalType": "enum AuctionHouse.DutchAuctionStatus",
              "name": "status",
              "type": "uint8"
            }
          ],
          "internalType": "struct AuctionHouse.DutchAuctionItem",
          "name": "",
          "type": "tuple"
        }
      ],
      "stateMutability": "view",
      "type": "function"
    },
    {
      "inputs": [],
      "name": "getDutchAuctions",
      "outputs": [
        {
          "components": [
            {
              "internalType": "uint256",
              "name": "requestId",
              "type": "uint256"
            },
            {
              "internalType": "uint256",
              "name": "initialPrice",
              "type": "uint256"
            },
            {
              "internalType": "uint256",
              "name": "startAt",
              "type": "uint256"
            },
            {
              "internalType": "uint256",
              "name": "boughtPrice",
              "type": "uint256"
            },
            {
              "internalType": "address",
              "name": "buyer",
              "type": "address"
            },
            {
              "internalType": "enum AuctionHouse.DutchAuctionStatus",
              "name": "status",
              "type": "uint8"
            }
          ],
          "internalType": "struct AuctionHouse.DutchAuctionItem[]",
          "name": "",
          "type": "tuple[]"
        }
      ],
      "stateMutability": "view",
      "type": "function"
    },
    {
      "inputs": [
        {
          "internalType": "uint256",
          "name": "auctionId",
          "type": "uint256"
        }
      ],
      "name": "getDutchPrice",
      "outputs": [
        {
          "internalType": "uint256",
          "name": "",
          "type": "uint256"
        }
      ],
      "stateMutability": "view",
      "type": "function"
    },
    {
      "inputs": [
        {
          "internalType": "uint256",
          "name": "auctionId",
          "type": "uint256"
        }
      ],
      "name": "getEnglishAuction",
      "outputs": [
        {
          "components": [
            {
              "internalType": "uint256",
              "name": "requestId",
              "type": "uint256"
            },
            {
              "internalType": "uint256",
              "name": "endAt",
              "type": "uint256"
            },
            {
              "internalType": "uint256",
              "name": "startingBid",
              "type": "uint256"
            },
            {
              "internalType": "address",
              "name": "highestBidder",
              "type": "address"
            },
            {
              "internalType": "uint256",
              "name": "highestBid",
              "type": "uint256"
            },
            {
              "internalType": "enum AuctionHouse.EnglishAuctionStatus",
              "name": "status",
              "type": "uint8"
            }
          ],
          "internalType": "struct AuctionHouse.EnglishAuctionItem",
          "name": "",
          "type": "tuple"
        }
      ],
      "stateMutability": "view",
      "type": "function"
    },
    {
      "inputs": [],
      "name": "getEnglishAuctions",
      "outputs": [
        {
          "components": [
            {
              "internalType": "uint256",
              "name": "requestId",
              "type": "uint256"
            },
            {
              "internalType": "uint256",
              "name": "endAt",
              "type": "uint256"
            },
            {
              "internalType": "uint256",
              "name": "startingBid",
              "type": "uint256"
            },
            {
              "internalType": "address",
              "name": "highestBidder",
              "type": "address"
            },
            {
              "internalType": "uint256",
              "name": "highestBid",
              "type": "uint256"
            },
            {
              "internalType": "enum AuctionHouse.EnglishAuctionStatus",
              "name": "status",
              "type": "uint8"
            }
          ],
          "internalType": "struct AuctionHouse.EnglishAuctionItem[]",
          "name": "",
          "type": "tuple[]"
        }
      ],
      "stateMutability": "view",
      "type": "function"
    },
    {
      "inputs": [
        {
          "internalType": "address",
          "name": "_ABKAddress",
          "type": "address"
        },
        {
          "internalType": "address",
          "name": "_priceFinderAddress",
          "type": "address"
        }
      ],
      "name": "initialize",
      "outputs": [],
      "stateMutability": "nonpayable",
      "type": "function"
    },
    {
      "inputs": [],
      "name": "priceFinder",
      "outputs": [
        {
          "internalType": "contract PriceFinder",
          "name": "",
          "type": "address"
        }
      ],
      "stateMutability": "view",
      "type": "function"
    },
    {
      "inputs": [
        {
          "internalType": "uint256",
          "name": "_requestId",
          "type": "uint256"
        },
        {
          "internalType": "uint256",
          "name": "_initialPrice",
          "type": "uint256"
        }
      ],
      "name": "startDutchAuction",
      "outputs": [],
      "stateMutability": "nonpayable",
      "type": "function"
    },
    {
      "inputs": [
        {
          "internalType": "uint256",
          "name": "_requestId",
          "type": "uint256"
        },
        {
          "internalType": "uint256",
          "name": "_startingBid",
          "type": "uint256"
        }
      ],
      "name": "startEnglishAuction",
      "outputs": [],
      "stateMutability": "nonpayable",
      "type": "function"
    }
  ],
  "bytecode": "0x608060405234801561001057600080fd5b50613158806100206000396000f3fe608060405234801561001057600080fd5b506004361061010b5760003560e01c80637837ecba116100a2578063af4dbd2911610071578063af4dbd2914610294578063d3a8c4ec146102b0578063eb24be90146102e0578063f24bb633146102fe578063fe697bb8146103085761010b565b80637837ecba1461020c5780638a0390551461022a5780639a19d60314610246578063ad9f20a6146102765761010b565b806341de1bf2116100de57806341de1bf214610198578063485cc955146101b657806351b84acd146101d25780635e2a9ab2146101f05761010b565b8063124721b7146101105780631be052891461014057806323c391301461015e57806325481f5f1461017c575b600080fd5b61012a600480360381019061012591906122fa565b610324565b6040516101379190612ac8565b60405180910390f35b61014861048b565b6040516101559190612ae3565b60405180910390f35b610166610491565b6040516101739190612912565b60405180910390f35b610196600480360381019061019191906122fa565b6104b7565b005b6101a061088d565b6040516101ad9190612ae3565b60405180910390f35b6101d060048036038101906101cb9190612295565b610892565b005b6101da6109fa565b6040516101e791906128d5565b60405180910390f35b61020a60048036038101906102059190612323565b610b5e565b005b61021461122b565b60405161022191906128f7565b60405180910390f35b610244600480360381019061023f9190612323565b611251565b005b610260600480360381019061025b91906122fa565b6114d5565b60405161026d9190612aad565b60405180910390f35b61027e61163c565b60405161028b9190612ae3565b60405180910390f35b6102ae60048036038101906102a991906122fa565b611641565b005b6102ca60048036038101906102c591906122fa565b611998565b6040516102d79190612ae3565b60405180910390f35b6102e8611c27565b6040516102f591906128b3565b60405180910390f35b610306611d8b565b005b610322600480360381019061031d9190612323565b611ee3565b005b61032c61214e565b60358281548110610366577f4e487b7100000000000000000000000000000000000000000000000000000000600052603260045260246000fd5b90600052602060002090600602016040518060c00160405290816000820154815260200160018201548152602001600282015481526020016003820160009054906101000a900473ffffffffffffffffffffffffffffffffffffffff1673ffffffffffffffffffffffffffffffffffffffff1673ffffffffffffffffffffffffffffffffffffffff168152602001600482015481526020016005820160009054906101000a900460ff166002811115610448577f4e487b7100000000000000000000000000000000000000000000000000000000600052602160045260246000fd5b6002811115610480577f4e487b7100000000000000000000000000000000000000000000000000000000600052602160045260246000fd5b815250509050919050565b61025881565b603460009054906101000a900473ffffffffffffffffffffffffffffffffffffffff1681565b600260015414156104fd576040517f08c379a00000000000000000000000000000000000000000000000000000000081526004016104f490612a8d565b60405180910390fd5b6002600181905550600060378281548110610541577f4e487b7100000000000000000000000000000000000000000000000000000000600052603260045260246000fd5b906000526020600020906005020190506000600181111561058b577f4e487b7100000000000000000000000000000000000000000000000000000000600052602160045260246000fd5b8160040160149054906101000a900460ff1660018111156105d5577f4e487b7100000000000000000000000000000000000000000000000000000000600052602160045260246000fd5b14610615576040517f08c379a000000000000000000000000000000000000000000000000000000000815260040161060c9061292d565b60405180910390fd5b600061062083611998565b9050603360009054906101000a900473ffffffffffffffffffffffffffffffffffffffff1673ffffffffffffffffffffffffffffffffffffffff166323b872dd3330846040518463ffffffff1660e01b815260040161068193929190612853565b602060405180830381600087803b15801561069b57600080fd5b505af11580156106af573d6000803e3d6000fd5b505050506040513d601f19601f820116820180604052508101906106d391906122d1565b50603460009054906101000a900473ffffffffffffffffffffffffffffffffffffffff1673ffffffffffffffffffffffffffffffffffffffff1663c7b7ad39836000015483336040518463ffffffff1660e01b815260040161073793929190612afe565b600060405180830381600087803b15801561075157600080fd5b505af1158015610765573d6000803e3d6000fd5b50505050603360009054906101000a900473ffffffffffffffffffffffffffffffffffffffff1673ffffffffffffffffffffffffffffffffffffffff166342966c68826040518263ffffffff1660e01b81526004016107c49190612ae3565b600060405180830381600087803b1580156107de57600080fd5b505af11580156107f2573d6000803e3d6000fd5b5050505060018260040160146101000a81548160ff02191690836001811115610844577f4e487b7100000000000000000000000000000000000000000000000000000000600052602160045260246000fd5b0217905550827fcfd1d37958d55a078a81279e0d03f5fba3a28b5caa731525565a516891d4db24826040516108799190612ae3565b60405180910390a250506001808190555050565b603c81565b600060019054906101000a900460ff166108ba5760008054906101000a900460ff16156108c3565b6108c261211a565b5b610902576040517f08c379a00000000000000000000000000000000000000000000000000000000081526004016108f9906129ed565b60405180910390fd5b60008060019054906101000a900460ff161590508015610952576001600060016101000a81548160ff02191690831515021790555060016000806101000a81548160ff0219169083151502179055505b82603360006101000a81548173ffffffffffffffffffffffffffffffffffffffff021916908373ffffffffffffffffffffffffffffffffffffffff16021790555081603460006101000a81548173ffffffffffffffffffffffffffffffffffffffff021916908373ffffffffffffffffffffffffffffffffffffffff16021790555080156109f55760008060016101000a81548160ff0219169083151502179055505b505050565b60606035805480602002602001604051908101604052809291908181526020016000905b82821015610b5557838290600052602060002090600602016040518060c00160405290816000820154815260200160018201548152602001600282015481526020016003820160009054906101000a900473ffffffffffffffffffffffffffffffffffffffff1673ffffffffffffffffffffffffffffffffffffffff1673ffffffffffffffffffffffffffffffffffffffff168152602001600482015481526020016005820160009054906101000a900460ff166002811115610b0a577f4e487b7100000000000000000000000000000000000000000000000000000000600052602160045260246000fd5b6002811115610b42577f4e487b7100000000000000000000000000000000000000000000000000000000600052602160045260246000fd5b8152505081526020019060010190610a1e565b50505050905090565b60026001541415610ba4576040517f08c379a0000000000000000000000000000000000000000000000000000000008152600401610b9b90612a8d565b60405180910390fd5b6002600181905550600060358381548110610be8577f4e487b7100000000000000000000000000000000000000000000000000000000600052603260045260246000fd5b9060005260206000209060060201905042816001015411610c3e576040517f08c379a0000000000000000000000000000000000000000000000000000000008152600401610c359061298d565b60405180910390fd5b60016002811115610c78577f4e487b7100000000000000000000000000000000000000000000000000000000600052602160045260246000fd5b8160050160009054906101000a900460ff166002811115610cc2577f4e487b7100000000000000000000000000000000000000000000000000000000600052602160045260246000fd5b1415610d03576040517f08c379a0000000000000000000000000000000000000000000000000000000008152600401610cfa906129cd565b60405180910390fd5b8060030160009054906101000a900473ffffffffffffffffffffffffffffffffffffffff1673ffffffffffffffffffffffffffffffffffffffff163373ffffffffffffffffffffffffffffffffffffffff161415610d96576040517f08c379a0000000000000000000000000000000000000000000000000000000008152600401610d8d90612a0d565b60405180910390fd5b60006002811115610dd0577f4e487b7100000000000000000000000000000000000000000000000000000000600052602160045260246000fd5b8160050160009054906101000a900460ff166002811115610e1a577f4e487b7100000000000000000000000000000000000000000000000000000000600052602160045260246000fd5b1415610eba5781816002015410610e66576040517f08c379a0000000000000000000000000000000000000000000000000000000008152600401610e5d9061294d565b60405180910390fd5b60028160050160006101000a81548160ff02191690836002811115610eb4577f4e487b7100000000000000000000000000000000000000000000000000000000600052602160045260246000fd5b02179055505b600280811115610ef3577f4e487b7100000000000000000000000000000000000000000000000000000000600052602160045260246000fd5b8160050160009054906101000a900460ff166002811115610f3d577f4e487b7100000000000000000000000000000000000000000000000000000000600052602160045260246000fd5b141561116d5781816004015410610f89576040517f08c379a0000000000000000000000000000000000000000000000000000000008152600401610f809061294d565b60405180910390fd5b600073ffffffffffffffffffffffffffffffffffffffff168160030160009054906101000a900473ffffffffffffffffffffffffffffffffffffffff1673ffffffffffffffffffffffffffffffffffffffff16146110ba57603360009054906101000a900473ffffffffffffffffffffffffffffffffffffffff1673ffffffffffffffffffffffffffffffffffffffff1663a9059cbb8260030160009054906101000a900473ffffffffffffffffffffffffffffffffffffffff1683600401546040518363ffffffff1660e01b815260040161106692919061288a565b602060405180830381600087803b15801561108057600080fd5b505af1158015611094573d6000803e3d6000fd5b505050506040513d601f19601f820116820180604052508101906110b891906122d1565b505b603360009054906101000a900473ffffffffffffffffffffffffffffffffffffffff1673ffffffffffffffffffffffffffffffffffffffff166323b872dd3330856040518463ffffffff1660e01b815260040161111993929190612853565b602060405180830381600087803b15801561113357600080fd5b505af1158015611147573d6000803e3d6000fd5b505050506040513d601f19601f8201168201806040525081019061116b91906122d1565b505b818160040181905550338160030160006101000a81548173ffffffffffffffffffffffffffffffffffffffff021916908373ffffffffffffffffffffffffffffffffffffffff16021790555042603c82600101546111cb9190612c99565b10156111e757603c426111de9190612bb8565b81600101819055505b827f134208eb6232cb0dc9169c19060ae161bd586229c56e51857560b87030858b3c836040516112179190612ae3565b60405180910390a250600180819055505050565b603360009054906101000a900473ffffffffffffffffffffffffffffffffffffffff1681565b603460009054906101000a900473ffffffffffffffffffffffffffffffffffffffff1673ffffffffffffffffffffffffffffffffffffffff163373ffffffffffffffffffffffffffffffffffffffff16146112e1576040517f08c379a00000000000000000000000000000000000000000000000000000000081526004016112d8906129ad565b60405180910390fd5b60356040518060c00160405280848152602001610258426113029190612bb8565b8152602001838152602001600073ffffffffffffffffffffffffffffffffffffffff168152602001600081526020016000600281111561136b577f4e487b7100000000000000000000000000000000000000000000000000000000600052602160045260246000fd5b815250908060018154018082558091505060019003906000526020600020906006020160009091909190915060008201518160000155602082015181600101556040820151816002015560608201518160030160006101000a81548173ffffffffffffffffffffffffffffffffffffffff021916908373ffffffffffffffffffffffffffffffffffffffff1602179055506080820151816004015560a08201518160050160006101000a81548160ff02191690836002811115611457577f4e487b7100000000000000000000000000000000000000000000000000000000600052602160045260246000fd5b0217905550505060016035805490506114709190612c99565b603660008481526020019081526020016000208190555060016035805490506114999190612c99565b827f93bcae4c537bde77e7f9083a6e9b33c48be1c62de70fa0ce62ab58cb6b66f6b8836040516114c99190612ae3565b60405180910390a35050565b6114dd6121d2565b60378281548110611517577f4e487b7100000000000000000000000000000000000000000000000000000000600052603260045260246000fd5b90600052602060002090600502016040518060c0016040529081600082015481526020016001820154815260200160028201548152602001600382015481526020016004820160009054906101000a900473ffffffffffffffffffffffffffffffffffffffff1673ffffffffffffffffffffffffffffffffffffffff1673ffffffffffffffffffffffffffffffffffffffff1681526020016004820160149054906101000a900460ff1660018111156115f9577f4e487b7100000000000000000000000000000000000000000000000000000000600052602160045260246000fd5b6001811115611631577f4e487b7100000000000000000000000000000000000000000000000000000000600052602160045260246000fd5b815250509050919050565b600081565b60026001541415611687576040517f08c379a000000000000000000000000000000000000000000000000000000000815260040161167e90612a8d565b60405180910390fd5b60026001819055506000603582815481106116cb577f4e487b7100000000000000000000000000000000000000000000000000000000600052603260045260246000fd5b9060005260206000209060060201905080600101544211611721576040517f08c379a000000000000000000000000000000000000000000000000000000000815260040161171890612a2d565b60405180910390fd5b60028081111561175a577f4e487b7100000000000000000000000000000000000000000000000000000000600052602160045260246000fd5b8160050160009054906101000a900460ff1660028111156117a4577f4e487b7100000000000000000000000000000000000000000000000000000000600052602160045260246000fd5b14156118fd57603460009054906101000a900473ffffffffffffffffffffffffffffffffffffffff1673ffffffffffffffffffffffffffffffffffffffff1663c7b7ad39826000015483600401548460030160009054906101000a900473ffffffffffffffffffffffffffffffffffffffff166040518463ffffffff1660e01b815260040161183593929190612afe565b600060405180830381600087803b15801561184f57600080fd5b505af1158015611863573d6000803e3d6000fd5b50505050603360009054906101000a900473ffffffffffffffffffffffffffffffffffffffff1673ffffffffffffffffffffffffffffffffffffffff166342966c6882600401546040518263ffffffff1660e01b81526004016118c69190612ae3565b600060405180830381600087803b1580156118e057600080fd5b505af11580156118f4573d6000803e3d6000fd5b505050506118fe565b5b60018160050160006101000a81548160ff0219169083600281111561194c577f4e487b7100000000000000000000000000000000000000000000000000000000600052602160045260246000fd5b0217905550817ff90dad4762e15425b7bd66a0b06cc5fa98db2aa7d285a6ef0a59a9b85a90a3ff82600401546040516119859190612ae3565b60405180910390a2506001808190555050565b600080603783815481106119d5577f4e487b7100000000000000000000000000000000000000000000000000000000600052603260045260246000fd5b90600052602060002090600502016040518060c0016040529081600082015481526020016001820154815260200160028201548152602001600382015481526020016004820160009054906101000a900473ffffffffffffffffffffffffffffffffffffffff1673ffffffffffffffffffffffffffffffffffffffff1673ffffffffffffffffffffffffffffffffffffffff1681526020016004820160149054906101000a900460ff166001811115611ab7577f4e487b7100000000000000000000000000000000000000000000000000000000600052602160045260246000fd5b6001811115611aef577f4e487b7100000000000000000000000000000000000000000000000000000000600052602160045260246000fd5b8152505090506000808260200151611b079190612c99565b90506000826040015142611b1b9190612c99565b905060006102586103e883611b309190612c3f565b611b3a9190612c0e565b905060008311611b7f576040517f08c379a0000000000000000000000000000000000000000000000000000000008152600401611b7690612a4d565b60405180910390fd5b6000821015611bc3576040517f08c379a0000000000000000000000000000000000000000000000000000000008152600401611bba9061296d565b60405180910390fd5b610258821115611bda576000945050505050611c22565b6103e881840281611c14577f4e487b7100000000000000000000000000000000000000000000000000000000600052601260045260246000fd5b048460200151039450505050505b919050565b60606037805480602002602001604051908101604052809291908181526020016000905b82821015611d8257838290600052602060002090600502016040518060c0016040529081600082015481526020016001820154815260200160028201548152602001600382015481526020016004820160009054906101000a900473ffffffffffffffffffffffffffffffffffffffff1673ffffffffffffffffffffffffffffffffffffffff1673ffffffffffffffffffffffffffffffffffffffff1681526020016004820160149054906101000a900460ff166001811115611d37577f4e487b7100000000000000000000000000000000000000000000000000000000600052602160045260246000fd5b6001811115611d6f577f4e487b7100000000000000000000000000000000000000000000000000000000600052602160045260246000fd5b8152505081526020019060010190611c4b565b50505050905090565b60005b603580549050811015611ee05760358181548110611dd5577f4e487b7100000000000000000000000000000000000000000000000000000000600052603260045260246000fd5b906000526020600020906006020160050160009054906101000a900460ff166002811115611e2c577f4e487b7100000000000000000000000000000000000000000000000000000000600052602160045260246000fd5b60016002811115611e66577f4e487b7100000000000000000000000000000000000000000000000000000000600052602160045260246000fd5b14158015611ebe575060358181548110611ea9577f4e487b7100000000000000000000000000000000000000000000000000000000600052603260045260246000fd5b90600052602060002090600602016001015442115b15611ecd57611ecc81611641565b5b8080611ed890612da7565b915050611d8e565b50565b60008111611f26576040517f08c379a0000000000000000000000000000000000000000000000000000000008152600401611f1d90612a6d565b60405180910390fd5b60376040518060c0016040528084815260200183815260200161025842611f4d9190612bb8565b815260200160008152602001600073ffffffffffffffffffffffffffffffffffffffff16815260200160006001811115611fb0577f4e487b7100000000000000000000000000000000000000000000000000000000600052602160045260246000fd5b81525090806001815401808255809150506001900390600052602060002090600502016000909190919091506000820151816000015560208201518160010155604082015181600201556060820151816003015560808201518160040160006101000a81548173ffffffffffffffffffffffffffffffffffffffff021916908373ffffffffffffffffffffffffffffffffffffffff16021790555060a08201518160040160146101000a81548160ff0219169083600181111561209c577f4e487b7100000000000000000000000000000000000000000000000000000000600052602160045260246000fd5b0217905550505060016035805490506120b59190612c99565b603660008481526020019081526020016000208190555060016035805490506120de9190612c99565b827fea3cf8e7ed7416faea0a11faf59ed2e5f0c909a2208b6153f79ceb69deebab508360405161210e9190612ae3565b60405180910390a35050565b60006121253061212b565b15905090565b6000808273ffffffffffffffffffffffffffffffffffffffff163b119050919050565b6040518060c00160405280600081526020016000815260200160008152602001600073ffffffffffffffffffffffffffffffffffffffff16815260200160008152602001600060028111156121cc577f4e487b7100000000000000000000000000000000000000000000000000000000600052602160045260246000fd5b81525090565b6040518060c0016040528060008152602001600081526020016000815260200160008152602001600073ffffffffffffffffffffffffffffffffffffffff16815260200160006001811115612250577f4e487b7100000000000000000000000000000000000000000000000000000000600052602160045260246000fd5b81525090565b600081359050612265816130dd565b92915050565b60008151905061227a816130f4565b92915050565b60008135905061228f8161310b565b92915050565b600080604083850312156122a857600080fd5b60006122b685828601612256565b92505060206122c785828601612256565b9150509250929050565b6000602082840312156122e357600080fd5b60006122f18482850161226b565b91505092915050565b60006020828403121561230c57600080fd5b600061231a84828501612280565b91505092915050565b6000806040838503121561233657600080fd5b600061234485828601612280565b925050602061235585828601612280565b9150509250929050565b600061236b8383612649565b60c08301905092915050565b6000612383838361273f565b60c08301905092915050565b61239881612ccd565b82525050565b6123a781612ccd565b82525050565b60006123b882612b55565b6123c28185612b85565b93506123cd83612b35565b8060005b838110156123fe5781516123e5888261235f565b97506123f083612b6b565b9250506001810190506123d1565b5085935050505092915050565b600061241682612b60565b6124208185612b96565b935061242b83612b45565b8060005b8381101561245c5781516124438882612377565b975061244e83612b78565b92505060018101905061242f565b5085935050505092915050565b61247281612d3b565b82525050565b61248181612d5f565b82525050565b61249081612d83565b82525050565b61249f81612d95565b82525050565b60006124b2600a83612ba7565b91506124bd82612e7d565b602082019050919050565b60006124d5600a83612ba7565b91506124e082612ea6565b602082019050919050565b60006124f8601783612ba7565b915061250382612ecf565b602082019050919050565b600061251b601083612ba7565b915061252682612ef8565b602082019050919050565b600061253e601083612ba7565b915061254982612f21565b602082019050919050565b6000612561600d83612ba7565b915061256c82612f4a565b602082019050919050565b6000612584602e83612ba7565b915061258f82612f73565b604082019050919050565b60006125a7601383612ba7565b91506125b282612fc2565b602082019050919050565b60006125ca600983612ba7565b91506125d582612feb565b602082019050919050565b60006125ed602b83612ba7565b91506125f882613014565b604082019050919050565b6000612610600d83612ba7565b915061261b82613063565b602082019050919050565b6000612633601f83612ba7565b915061263e8261308c565b602082019050919050565b60c08201600082015161265f6000850182612835565b5060208201516126726020850182612835565b5060408201516126856040850182612835565b5060608201516126986060850182612835565b5060808201516126ab608085018261238f565b5060a08201516126be60a0850182612487565b50505050565b60c0820160008201516126da6000850182612835565b5060208201516126ed6020850182612835565b5060408201516127006040850182612835565b5060608201516127136060850182612835565b506080820151612726608085018261238f565b5060a082015161273960a0850182612487565b50505050565b60c0820160008201516127556000850182612835565b5060208201516127686020850182612835565b50604082015161277b6040850182612835565b50606082015161278e606085018261238f565b5060808201516127a16080850182612835565b5060a08201516127b460a0850182612496565b50505050565b60c0820160008201516127d06000850182612835565b5060208201516127e36020850182612835565b5060408201516127f66040850182612835565b506060820151612809606085018261238f565b50608082015161281c6080850182612835565b5060a082015161282f60a0850182612496565b50505050565b61283e81612d31565b82525050565b61284d81612d31565b82525050565b6000606082019050612868600083018661239e565b612875602083018561239e565b6128826040830184612844565b949350505050565b600060408201905061289f600083018561239e565b6128ac6020830184612844565b9392505050565b600060208201905081810360008301526128cd81846123ad565b905092915050565b600060208201905081810360008301526128ef818461240b565b905092915050565b600060208201905061290c6000830184612469565b92915050565b60006020820190506129276000830184612478565b92915050565b60006020820190508181036000830152612946816124a5565b9050919050565b60006020820190508181036000830152612966816124c8565b9050919050565b60006020820190508181036000830152612986816124eb565b9050919050565b600060208201905081810360008301526129a68161250e565b9050919050565b600060208201905081810360008301526129c681612531565b9050919050565b600060208201905081810360008301526129e681612554565b9050919050565b60006020820190508181036000830152612a0681612577565b9050919050565b60006020820190508181036000830152612a268161259a565b9050919050565b60006020820190508181036000830152612a46816125bd565b9050919050565b60006020820190508181036000830152612a66816125e0565b9050919050565b60006020820190508181036000830152612a8681612603565b9050919050565b60006020820190508181036000830152612aa681612626565b9050919050565b600060c082019050612ac260008301846126c4565b92915050565b600060c082019050612add60008301846127ba565b92915050565b6000602082019050612af86000830184612844565b92915050565b6000606082019050612b136000830186612844565b612b206020830185612844565b612b2d604083018461239e565b949350505050565b6000819050602082019050919050565b6000819050602082019050919050565b600081519050919050565b600081519050919050565b6000602082019050919050565b6000602082019050919050565b600082825260208201905092915050565b600082825260208201905092915050565b600082825260208201905092915050565b6000612bc382612d31565b9150612bce83612d31565b9250827fffffffffffffffffffffffffffffffffffffffffffffffffffffffffffffffff03821115612c0357612c02612df0565b5b828201905092915050565b6000612c1982612d31565b9150612c2483612d31565b925082612c3457612c33612e1f565b5b828204905092915050565b6000612c4a82612d31565b9150612c5583612d31565b9250817fffffffffffffffffffffffffffffffffffffffffffffffffffffffffffffffff0483118215151615612c8e57612c8d612df0565b5b828202905092915050565b6000612ca482612d31565b9150612caf83612d31565b925082821015612cc257612cc1612df0565b5b828203905092915050565b6000612cd882612d11565b9050919050565b60008115159050919050565b6000819050612cf9826130b5565b919050565b6000819050612d0c826130c9565b919050565b600073ffffffffffffffffffffffffffffffffffffffff82169050919050565b6000819050919050565b6000612d4682612d4d565b9050919050565b6000612d5882612d11565b9050919050565b6000612d6a82612d71565b9050919050565b6000612d7c82612d11565b9050919050565b6000612d8e82612ceb565b9050919050565b6000612da082612cfe565b9050919050565b6000612db282612d31565b91507fffffffffffffffffffffffffffffffffffffffffffffffffffffffffffffffff821415612de557612de4612df0565b5b600182019050919050565b7f4e487b7100000000000000000000000000000000000000000000000000000000600052601160045260246000fd5b7f4e487b7100000000000000000000000000000000000000000000000000000000600052601260045260246000fd5b7f4e487b7100000000000000000000000000000000000000000000000000000000600052602160045260246000fd5b7f6e6f742061637469766500000000000000000000000000000000000000000000600082015250565b7f6e6f7420656e6f75676800000000000000000000000000000000000000000000600082015250565b7f61756374696f6e206d7573742062652073746172746564000000000000000000600082015250565b7f61756374696f6e2066696e697368656400000000000000000000000000000000600082015250565b7f6f6e6c7920707269636566696e64657200000000000000000000000000000000600082015250565b7f61756374696f6e20656e64656400000000000000000000000000000000000000600082015250565b7f496e697469616c697a61626c653a20636f6e747261637420697320616c72656160008201527f647920696e697469616c697a6564000000000000000000000000000000000000602082015250565b7f616c726561647920686967682062696464657200000000000000000000000000600082015250565b7f63616e2774207965740000000000000000000000000000000000000000000000600082015250565b7f496e697469616c207072696365206d757374206265206c61726765722074686160008201527f6e206d696e207072696365000000000000000000000000000000000000000000602082015250565b7f6c657373207468616e206d696e00000000000000000000000000000000000000600082015250565b7f5265656e7472616e637947756172643a207265656e7472616e742063616c6c00600082015250565b600281106130c6576130c5612e4e565b5b50565b600381106130da576130d9612e4e565b5b50565b6130e681612ccd565b81146130f157600080fd5b50565b6130fd81612cdf565b811461310857600080fd5b50565b61311481612d31565b811461311f57600080fd5b5056fea26469706673582212205008dc454f7746c9bd3186ed5b48cb7b2c2e88ea074789bf275fa4cc83ac8bef64736f6c63430008040033",
  "linkReferences": {},
  "deployedLinkReferences": {}
}