{
  "_format": "hh-sol-artifact-1",
  "contractName": "FakeApe",
  "sourceName": "contracts/mocks/FakeApe.sol",
  "abi": [
    {
      "inputs": [],
      "stateMutability": "nonpayable",
      "type": "constructor"
    },
    {
      "anonymous": false,
      "inputs": [
        {
          "indexed": true,
          "internalType": "address",
          "name": "owner",
          "type": "address"
        },
        {
          "indexed": true,
          "internalType": "address",
          "name": "approved",
          "type": "address"
        },
        {
          "indexed": true,
          "internalType": "uint256",
          "name": "tokenId",
          "type": "uint256"
        }
      ],
      "name": "Approval",
      "type": "event"
    },
    {
      "anonymous": false,
      "inputs": [
        {
          "indexed": true,
          "internalType": "address",
          "name": "owner",
          "type": "address"
        },
        {
          "indexed": true,
          "internalType": "address",
          "name": "operator",
          "type": "address"
        },
        {
          "indexed": false,
          "internalType": "bool",
          "name": "approved",
          "type": "bool"
        }
      ],
      "name": "ApprovalForAll",
      "type": "event"
    },
    {
      "anonymous": false,
      "inputs": [
        {
          "indexed": true,
          "internalType": "address",
          "name": "from",
          "type": "address"
        },
        {
          "indexed": true,
          "internalType": "address",
          "name": "to",
          "type": "address"
        },
        {
          "indexed": true,
          "internalType": "uint256",
          "name": "tokenId",
          "type": "uint256"
        }
      ],
      "name": "Transfer",
      "type": "event"
    },
    {
      "inputs": [
        {
          "internalType": "address",
          "name": "to",
          "type": "address"
        },
        {
          "internalType": "uint256",
          "name": "tokenId",
          "type": "uint256"
        }
      ],
      "name": "approve",
      "outputs": [],
      "stateMutability": "nonpayable",
      "type": "function"
    },
    {
      "inputs": [
        {
          "internalType": "address",
          "name": "owner",
          "type": "address"
        }
      ],
      "name": "balanceOf",
      "outputs": [
        {
          "internalType": "uint256",
          "name": "",
          "type": "uint256"
        }
      ],
      "stateMutability": "view",
      "type": "function"
    },
    {
      "inputs": [
        {
          "internalType": "uint256",
          "name": "tokenId",
          "type": "uint256"
        }
      ],
      "name": "getApproved",
      "outputs": [
        {
          "internalType": "address",
          "name": "",
          "type": "address"
        }
      ],
      "stateMutability": "view",
      "type": "function"
    },
    {
      "inputs": [
        {
          "internalType": "address",
          "name": "owner",
          "type": "address"
        },
        {
          "internalType": "address",
          "name": "operator",
          "type": "address"
        }
      ],
      "name": "isApprovedForAll",
      "outputs": [
        {
          "internalType": "bool",
          "name": "",
          "type": "bool"
        }
      ],
      "stateMutability": "view",
      "type": "function"
    },
    {
      "inputs": [],
      "name": "mint",
      "outputs": [],
      "stateMutability": "nonpayable",
      "type": "function"
    },
    {
      "inputs": [],
      "name": "name",
      "outputs": [
        {
          "internalType": "string",
          "name": "",
          "type": "string"
        }
      ],
      "stateMutability": "view",
      "type": "function"
    },
    {
      "inputs": [
        {
          "internalType": "uint256",
          "name": "tokenId",
          "type": "uint256"
        }
      ],
      "name": "ownerOf",
      "outputs": [
        {
          "internalType": "address",
          "name": "",
          "type": "address"
        }
      ],
      "stateMutability": "view",
      "type": "function"
    },
    {
      "inputs": [
        {
          "internalType": "address",
          "name": "from",
          "type": "address"
        },
        {
          "internalType": "address",
          "name": "to",
          "type": "address"
        },
        {
          "internalType": "uint256",
          "name": "tokenId",
          "type": "uint256"
        }
      ],
      "name": "safeTransferFrom",
      "outputs": [],
      "stateMutability": "nonpayable",
      "type": "function"
    },
    {
      "inputs": [
        {
          "internalType": "address",
          "name": "from",
          "type": "address"
        },
        {
          "internalType": "address",
          "name": "to",
          "type": "address"
        },
        {
          "internalType": "uint256",
          "name": "tokenId",
          "type": "uint256"
        },
        {
          "internalType": "bytes",
          "name": "_data",
          "type": "bytes"
        }
      ],
      "name": "safeTransferFrom",
      "outputs": [],
      "stateMutability": "nonpayable",
      "type": "function"
    },
    {
      "inputs": [
        {
          "internalType": "address",
          "name": "operator",
          "type": "address"
        },
        {
          "internalType": "bool",
          "name": "approved",
          "type": "bool"
        }
      ],
      "name": "setApprovalForAll",
      "outputs": [],
      "stateMutability": "nonpayable",
      "type": "function"
    },
    {
      "inputs": [
        {
          "internalType": "bytes4",
          "name": "interfaceId",
          "type": "bytes4"
        }
      ],
      "name": "supportsInterface",
      "outputs": [
        {
          "internalType": "bool",
          "name": "",
          "type": "bool"
        }
      ],
      "stateMutability": "view",
      "type": "function"
    },
    {
      "inputs": [],
      "name": "symbol",
      "outputs": [
        {
          "internalType": "string",
          "name": "",
          "type": "string"
        }
      ],
      "stateMutability": "view",
      "type": "function"
    },
    {
      "inputs": [
        {
          "internalType": "uint256",
          "name": "index",
          "type": "uint256"
        }
      ],
      "name": "tokenByIndex",
      "outputs": [
        {
          "internalType": "uint256",
          "name": "",
          "type": "uint256"
        }
      ],
      "stateMutability": "view",
      "type": "function"
    },
    {
      "inputs": [
        {
          "internalType": "address",
          "name": "owner",
          "type": "address"
        },
        {
          "internalType": "uint256",
          "name": "index",
          "type": "uint256"
        }
      ],
      "name": "tokenOfOwnerByIndex",
      "outputs": [
        {
          "internalType": "uint256",
          "name": "",
          "type": "uint256"
        }
      ],
      "stateMutability": "view",
      "type": "function"
    },
    {
      "inputs": [
        {
          "internalType": "uint256",
          "name": "tokenId",
          "type": "uint256"
        }
      ],
      "name": "tokenURI",
      "outputs": [
        {
          "internalType": "string",
          "name": "",
          "type": "string"
        }
      ],
      "stateMutability": "view",
      "type": "function"
    },
    {
      "inputs": [],
      "name": "totalSupply",
      "outputs": [
        {
          "internalType": "uint256",
          "name": "",
          "type": "uint256"
        }
      ],
      "stateMutability": "view",
      "type": "function"
    },
    {
      "inputs": [
        {
          "internalType": "address",
          "name": "from",
          "type": "address"
        },
        {
          "internalType": "address",
          "name": "to",
          "type": "address"
        },
        {
          "internalType": "uint256",
          "name": "tokenId",
          "type": "uint256"
        }
      ],
      "name": "transferFrom",
      "outputs": [],
      "stateMutability": "nonpayable",
      "type": "function"
    },
    {
      "inputs": [
        {
          "internalType": "address",
          "name": "_userAddress",
          "type": "address"
        }
      ],
      "name": "userTokens",
      "outputs": [
        {
          "internalType": "uint256[]",
          "name": "",
          "type": "uint256[]"
        }
      ],
      "stateMutability": "view",
      "type": "function"
    }
  ],
  "bytecode": "0x60806040526000600a553480156200001657600080fd5b506040518060400160405280600981526020017f46616b65204150455300000000000000000000000000000000000000000000008152506040518060400160405280600581526020017f464150455300000000000000000000000000000000000000000000000000000081525081600090805190602001906200009b929190620000bd565b508060019080519060200190620000b4929190620000bd565b505050620001d2565b828054620000cb906200016d565b90600052602060002090601f016020900481019282620000ef57600085556200013b565b82601f106200010a57805160ff19168380011785556200013b565b828001600101855582156200013b579182015b828111156200013a5782518255916020019190600101906200011d565b5b5090506200014a91906200014e565b5090565b5b80821115620001695760008160009055506001016200014f565b5090565b600060028204905060018216806200018657607f821691505b602082108114156200019d576200019c620001a3565b5b50919050565b7f4e487b7100000000000000000000000000000000000000000000000000000000600052602260045260246000fd5b61320680620001e26000396000f3fe608060405234801561001057600080fd5b50600436106101165760003560e01c80634f6ccce7116100a2578063a22cb46511610071578063a22cb465146102f3578063b88d4fde1461030f578063c87b56dd1461032b578063e985e9c51461035b578063ed498fa81461038b57610116565b80634f6ccce7146102455780636352211e1461027557806370a08231146102a557806395d89b41146102d557610116565b80631249c58b116100e95780631249c58b146101b557806318160ddd146101bf57806323b872dd146101dd5780632f745c59146101f957806342842e0e1461022957610116565b806301ffc9a71461011b57806306fdde031461014b578063081812fc14610169578063095ea7b314610199575b600080fd5b61013560048036038101906101309190612154565b6103bb565b6040516101429190612624565b60405180910390f35b6101536103cc565b604051610160919061263f565b60405180910390f35b610183600480360381019061017e91906121a6565b61045e565b604051610190919061259b565b60405180910390f35b6101b360048036038101906101ae9190612118565b6104e3565b005b6101bd6105fb565b005b6101c7610667565b6040516101d49190612881565b60405180910390f35b6101f760048036038101906101f29190612012565b610674565b005b610213600480360381019061020e9190612118565b6106d4565b6040516102209190612881565b60405180910390f35b610243600480360381019061023e9190612012565b610779565b005b61025f600480360381019061025a91906121a6565b610799565b60405161026c9190612881565b60405180910390f35b61028f600480360381019061028a91906121a6565b610830565b60405161029c919061259b565b60405180910390f35b6102bf60048036038101906102ba9190611fad565b6108e2565b6040516102cc9190612881565b60405180910390f35b6102dd61099a565b6040516102ea919061263f565b60405180910390f35b61030d600480360381019061030891906120dc565b610a2c565b005b61032960048036038101906103249190612061565b610a42565b005b610345600480360381019061034091906121a6565b610aa4565b604051610352919061263f565b60405180910390f35b61037560048036038101906103709190611fd6565b610b4b565b6040516103829190612624565b60405180910390f35b6103a560048036038101906103a09190611fad565b610bdf565b6040516103b29190612602565b60405180910390f35b60006103c682610cd4565b50919050565b6060600080546103db90612adf565b80601f016020809104026020016040519081016040528092919081815260200182805461040790612adf565b80156104545780601f1061042957610100808354040283529160200191610454565b820191906000526020600020905b81548152906001019060200180831161043757829003601f168201915b5050505050905090565b600061046982610d4e565b6104a8576040517f08c379a000000000000000000000000000000000000000000000000000000000815260040161049f906127e1565b60405180910390fd5b6004600083815260200190815260200160002060009054906101000a900473ffffffffffffffffffffffffffffffffffffffff169050919050565b60006104ee82610830565b90508073ffffffffffffffffffffffffffffffffffffffff168373ffffffffffffffffffffffffffffffffffffffff16141561055f576040517f08c379a000000000000000000000000000000000000000000000000000000000815260040161055690612821565b60405180910390fd5b8073ffffffffffffffffffffffffffffffffffffffff1661057e610dba565b73ffffffffffffffffffffffffffffffffffffffff1614806105ad57506105ac816105a7610dba565b610b4b565b5b6105ec576040517f08c379a00000000000000000000000000000000000000000000000000000000081526004016105e390612761565b60405180910390fd5b6105f68383610dc2565b505050565b612710600a5410610641576040517f08c379a000000000000000000000000000000000000000000000000000000000815260040161063890612721565b60405180910390fd5b61064d33600a54610e7b565b600a600081548092919061066090612b42565b9190505550565b6000600880549050905090565b61068561067f610dba565b82611055565b6106c4576040517f08c379a00000000000000000000000000000000000000000000000000000000081526004016106bb90612841565b60405180910390fd5b6106cf838383611133565b505050565b60006106df836108e2565b8210610720576040517f08c379a000000000000000000000000000000000000000000000000000000000815260040161071790612661565b60405180910390fd5b600660008473ffffffffffffffffffffffffffffffffffffffff1673ffffffffffffffffffffffffffffffffffffffff168152602001908152602001600020600083815260200190815260200160002054905092915050565b61079483838360405180602001604052806000815250610a42565b505050565b60006107a3610667565b82106107e4576040517f08c379a00000000000000000000000000000000000000000000000000000000081526004016107db90612861565b60405180910390fd5b6008828154811061081e577f4e487b7100000000000000000000000000000000000000000000000000000000600052603260045260246000fd5b90600052602060002001549050919050565b6000806002600084815260200190815260200160002060009054906101000a900473ffffffffffffffffffffffffffffffffffffffff169050600073ffffffffffffffffffffffffffffffffffffffff168173ffffffffffffffffffffffffffffffffffffffff1614156108d9576040517f08c379a00000000000000000000000000000000000000000000000000000000081526004016108d0906127a1565b60405180910390fd5b80915050919050565b60008073ffffffffffffffffffffffffffffffffffffffff168273ffffffffffffffffffffffffffffffffffffffff161415610953576040517f08c379a000000000000000000000000000000000000000000000000000000000815260040161094a90612781565b60405180910390fd5b600360008373ffffffffffffffffffffffffffffffffffffffff1673ffffffffffffffffffffffffffffffffffffffff168152602001908152602001600020549050919050565b6060600180546109a990612adf565b80601f01602080910402602001604051908101604052809291908181526020018280546109d590612adf565b8015610a225780601f106109f757610100808354040283529160200191610a22565b820191906000526020600020905b815481529060010190602001808311610a0557829003601f168201915b5050505050905090565b610a3e610a37610dba565b838361139a565b5050565b610a53610a4d610dba565b83611055565b610a92576040517f08c379a0000000000000000000000000000000000000000000000000000000008152600401610a8990612841565b60405180910390fd5b610a9e84848484611507565b50505050565b6060610aaf82610d4e565b610aee576040517f08c379a0000000000000000000000000000000000000000000000000000000008152600401610ae590612801565b60405180910390fd5b6000610af8611563565b90506000815111610b185760405180602001604052806000815250610b43565b80610b2284611583565b604051602001610b33929190612577565b6040516020818303038152906040525b915050919050565b6000600560008473ffffffffffffffffffffffffffffffffffffffff1673ffffffffffffffffffffffffffffffffffffffff16815260200190815260200160002060008373ffffffffffffffffffffffffffffffffffffffff1673ffffffffffffffffffffffffffffffffffffffff16815260200190815260200160002060009054906101000a900460ff16905092915050565b60606000610bec836108e2565b67ffffffffffffffff811115610c2b577f4e487b7100000000000000000000000000000000000000000000000000000000600052604160045260246000fd5b604051908082528060200260200182016040528015610c595781602001602082028036833780820191505090505b50905060005b8151811015610cca57610c7284826106d4565b828281518110610cab577f4e487b7100000000000000000000000000000000000000000000000000000000600052603260045260246000fd5b6020026020010181815250508080610cc290612b42565b915050610c5f565b5080915050919050565b60007f780e9d63000000000000000000000000000000000000000000000000000000007bffffffffffffffffffffffffffffffffffffffffffffffffffffffff1916827bffffffffffffffffffffffffffffffffffffffffffffffffffffffff19161480610d475750610d4682611730565b5b9050919050565b60008073ffffffffffffffffffffffffffffffffffffffff166002600084815260200190815260200160002060009054906101000a900473ffffffffffffffffffffffffffffffffffffffff1673ffffffffffffffffffffffffffffffffffffffff1614159050919050565b600033905090565b816004600083815260200190815260200160002060006101000a81548173ffffffffffffffffffffffffffffffffffffffff021916908373ffffffffffffffffffffffffffffffffffffffff160217905550808273ffffffffffffffffffffffffffffffffffffffff16610e3583610830565b73ffffffffffffffffffffffffffffffffffffffff167f8c5be1e5ebec7d5bd14f71427d1e84f3dd0314c0f7b2291e5b200ac8c7c3b92560405160405180910390a45050565b600073ffffffffffffffffffffffffffffffffffffffff168273ffffffffffffffffffffffffffffffffffffffff161415610eeb576040517f08c379a0000000000000000000000000000000000000000000000000000000008152600401610ee2906127c1565b60405180910390fd5b610ef481610d4e565b15610f34576040517f08c379a0000000000000000000000000000000000000000000000000000000008152600401610f2b906126c1565b60405180910390fd5b610f4060008383611812565b6001600360008473ffffffffffffffffffffffffffffffffffffffff1673ffffffffffffffffffffffffffffffffffffffff1681526020019081526020016000206000828254610f90919061296e565b92505081905550816002600083815260200190815260200160002060006101000a81548173ffffffffffffffffffffffffffffffffffffffff021916908373ffffffffffffffffffffffffffffffffffffffff160217905550808273ffffffffffffffffffffffffffffffffffffffff16600073ffffffffffffffffffffffffffffffffffffffff167fddf252ad1be2c89b69c2b068fc378daa952ba7f163c4a11628f55a4df523b3ef60405160405180910390a461105160008383611822565b5050565b600061106082610d4e565b61109f576040517f08c379a000000000000000000000000000000000000000000000000000000000815260040161109690612741565b60405180910390fd5b60006110aa83610830565b90508073ffffffffffffffffffffffffffffffffffffffff168473ffffffffffffffffffffffffffffffffffffffff16148061111957508373ffffffffffffffffffffffffffffffffffffffff166111018461045e565b73ffffffffffffffffffffffffffffffffffffffff16145b8061112a57506111298185610b4b565b5b91505092915050565b8273ffffffffffffffffffffffffffffffffffffffff1661115382610830565b73ffffffffffffffffffffffffffffffffffffffff16146111a9576040517f08c379a00000000000000000000000000000000000000000000000000000000081526004016111a0906126a1565b60405180910390fd5b600073ffffffffffffffffffffffffffffffffffffffff168273ffffffffffffffffffffffffffffffffffffffff161415611219576040517f08c379a0000000000000000000000000000000000000000000000000000000008152600401611210906126e1565b60405180910390fd5b611224838383611812565b61122f600082610dc2565b6001600360008573ffffffffffffffffffffffffffffffffffffffff1673ffffffffffffffffffffffffffffffffffffffff168152602001908152602001600020600082825461127f91906129f5565b925050819055506001600360008473ffffffffffffffffffffffffffffffffffffffff1673ffffffffffffffffffffffffffffffffffffffff16815260200190815260200160002060008282546112d6919061296e565b92505081905550816002600083815260200190815260200160002060006101000a81548173ffffffffffffffffffffffffffffffffffffffff021916908373ffffffffffffffffffffffffffffffffffffffff160217905550808273ffffffffffffffffffffffffffffffffffffffff168473ffffffffffffffffffffffffffffffffffffffff167fddf252ad1be2c89b69c2b068fc378daa952ba7f163c4a11628f55a4df523b3ef60405160405180910390a4611395838383611822565b505050565b8173ffffffffffffffffffffffffffffffffffffffff168373ffffffffffffffffffffffffffffffffffffffff161415611409576040517f08c379a000000000000000000000000000000000000000000000000000000000815260040161140090612701565b60405180910390fd5b80600560008573ffffffffffffffffffffffffffffffffffffffff1673ffffffffffffffffffffffffffffffffffffffff16815260200190815260200160002060008473ffffffffffffffffffffffffffffffffffffffff1673ffffffffffffffffffffffffffffffffffffffff16815260200190815260200160002060006101000a81548160ff0219169083151502179055508173ffffffffffffffffffffffffffffffffffffffff168373ffffffffffffffffffffffffffffffffffffffff167f17307eab39ab6107e8899845ad3d59bd9653f200f220920489ca2b5937696c31836040516114fa9190612624565b60405180910390a3505050565b611512848484611133565b61151e84848484611827565b61155d576040517f08c379a000000000000000000000000000000000000000000000000000000000815260040161155490612681565b60405180910390fd5b50505050565b606060405180608001604052806044815260200161318d60449139905090565b606060008214156115cb576040518060400160405280600181526020017f3000000000000000000000000000000000000000000000000000000000000000815250905061172b565b600082905060005b600082146115fd5780806115e690612b42565b915050600a826115f691906129c4565b91506115d3565b60008167ffffffffffffffff81111561163f577f4e487b7100000000000000000000000000000000000000000000000000000000600052604160045260246000fd5b6040519080825280601f01601f1916602001820160405280156116715781602001600182028036833780820191505090505b5090505b600085146117245760018261168a91906129f5565b9150600a856116999190612b8b565b60306116a5919061296e565b60f81b8183815181106116e1577f4e487b7100000000000000000000000000000000000000000000000000000000600052603260045260246000fd5b60200101907effffffffffffffffffffffffffffffffffffffffffffffffffffffffffffff1916908160001a905350600a8561171d91906129c4565b9450611675565b8093505050505b919050565b60007f80ac58cd000000000000000000000000000000000000000000000000000000007bffffffffffffffffffffffffffffffffffffffffffffffffffffffff1916827bffffffffffffffffffffffffffffffffffffffffffffffffffffffff191614806117fb57507f5b5e139f000000000000000000000000000000000000000000000000000000007bffffffffffffffffffffffffffffffffffffffffffffffffffffffff1916827bffffffffffffffffffffffffffffffffffffffffffffffffffffffff1916145b8061180b575061180a826119be565b5b9050919050565b61181d838383611a28565b505050565b505050565b60006118488473ffffffffffffffffffffffffffffffffffffffff16611b3c565b156119b1578373ffffffffffffffffffffffffffffffffffffffff1663150b7a02611871610dba565b8786866040518563ffffffff1660e01b815260040161189394939291906125b6565b602060405180830381600087803b1580156118ad57600080fd5b505af19250505080156118de57506040513d601f19601f820116820180604052508101906118db919061217d565b60015b611961573d806000811461190e576040519150601f19603f3d011682016040523d82523d6000602084013e611913565b606091505b50600081511415611959576040517f08c379a000000000000000000000000000000000000000000000000000000000815260040161195090612681565b60405180910390fd5b805181602001fd5b63150b7a0260e01b7bffffffffffffffffffffffffffffffffffffffffffffffffffffffff1916817bffffffffffffffffffffffffffffffffffffffffffffffffffffffff1916149150506119b6565b600190505b949350505050565b60007f01ffc9a7000000000000000000000000000000000000000000000000000000007bffffffffffffffffffffffffffffffffffffffffffffffffffffffff1916827bffffffffffffffffffffffffffffffffffffffffffffffffffffffff1916149050919050565b611a33838383611b5f565b600073ffffffffffffffffffffffffffffffffffffffff168373ffffffffffffffffffffffffffffffffffffffff161415611a7657611a7181611b64565b611ab5565b8173ffffffffffffffffffffffffffffffffffffffff168373ffffffffffffffffffffffffffffffffffffffff1614611ab457611ab38382611bad565b5b5b600073ffffffffffffffffffffffffffffffffffffffff168273ffffffffffffffffffffffffffffffffffffffff161415611af857611af381611d1a565b611b37565b8273ffffffffffffffffffffffffffffffffffffffff168273ffffffffffffffffffffffffffffffffffffffff1614611b3657611b358282611e5d565b5b5b505050565b6000808273ffffffffffffffffffffffffffffffffffffffff163b119050919050565b505050565b6008805490506009600083815260200190815260200160002081905550600881908060018154018082558091505060019003906000526020600020016000909190919091505550565b60006001611bba846108e2565b611bc491906129f5565b9050600060076000848152602001908152602001600020549050818114611ca9576000600660008673ffffffffffffffffffffffffffffffffffffffff1673ffffffffffffffffffffffffffffffffffffffff168152602001908152602001600020600084815260200190815260200160002054905080600660008773ffffffffffffffffffffffffffffffffffffffff1673ffffffffffffffffffffffffffffffffffffffff168152602001908152602001600020600084815260200190815260200160002081905550816007600083815260200190815260200160002081905550505b6007600084815260200190815260200160002060009055600660008573ffffffffffffffffffffffffffffffffffffffff1673ffffffffffffffffffffffffffffffffffffffff16815260200190815260200160002060008381526020019081526020016000206000905550505050565b60006001600880549050611d2e91906129f5565b9050600060096000848152602001908152602001600020549050600060088381548110611d84577f4e487b7100000000000000000000000000000000000000000000000000000000600052603260045260246000fd5b906000526020600020015490508060088381548110611dcc577f4e487b7100000000000000000000000000000000000000000000000000000000600052603260045260246000fd5b906000526020600020018190555081600960008381526020019081526020016000208190555060096000858152602001908152602001600020600090556008805480611e41577f4e487b7100000000000000000000000000000000000000000000000000000000600052603160045260246000fd5b6001900381819060005260206000200160009055905550505050565b6000611e68836108e2565b905081600660008573ffffffffffffffffffffffffffffffffffffffff1673ffffffffffffffffffffffffffffffffffffffff168152602001908152602001600020600083815260200190815260200160002081905550806007600084815260200190815260200160002081905550505050565b6000611eef611eea846128c1565b61289c565b905082815260208101848484011115611f0757600080fd5b611f12848285612a9d565b509392505050565b600081359050611f2981613130565b92915050565b600081359050611f3e81613147565b92915050565b600081359050611f538161315e565b92915050565b600081519050611f688161315e565b92915050565b600082601f830112611f7f57600080fd5b8135611f8f848260208601611edc565b91505092915050565b600081359050611fa781613175565b92915050565b600060208284031215611fbf57600080fd5b6000611fcd84828501611f1a565b91505092915050565b60008060408385031215611fe957600080fd5b6000611ff785828601611f1a565b925050602061200885828601611f1a565b9150509250929050565b60008060006060848603121561202757600080fd5b600061203586828701611f1a565b935050602061204686828701611f1a565b925050604061205786828701611f98565b9150509250925092565b6000806000806080858703121561207757600080fd5b600061208587828801611f1a565b945050602061209687828801611f1a565b93505060406120a787828801611f98565b925050606085013567ffffffffffffffff8111156120c457600080fd5b6120d087828801611f6e565b91505092959194509250565b600080604083850312156120ef57600080fd5b60006120fd85828601611f1a565b925050602061210e85828601611f2f565b9150509250929050565b6000806040838503121561212b57600080fd5b600061213985828601611f1a565b925050602061214a85828601611f98565b9150509250929050565b60006020828403121561216657600080fd5b600061217484828501611f44565b91505092915050565b60006020828403121561218f57600080fd5b600061219d84828501611f59565b91505092915050565b6000602082840312156121b857600080fd5b60006121c684828501611f98565b91505092915050565b60006121db8383612559565b60208301905092915050565b6121f081612a29565b82525050565b600061220182612902565b61220b8185612930565b9350612216836128f2565b8060005b8381101561224757815161222e88826121cf565b975061223983612923565b92505060018101905061221a565b5085935050505092915050565b61225d81612a3b565b82525050565b600061226e8261290d565b6122788185612941565b9350612288818560208601612aac565b61229181612c78565b840191505092915050565b60006122a782612918565b6122b18185612952565b93506122c1818560208601612aac565b6122ca81612c78565b840191505092915050565b60006122e082612918565b6122ea8185612963565b93506122fa818560208601612aac565b80840191505092915050565b6000612313602b83612952565b915061231e82612c89565b604082019050919050565b6000612336603283612952565b915061234182612cd8565b604082019050919050565b6000612359602583612952565b915061236482612d27565b604082019050919050565b600061237c601c83612952565b915061238782612d76565b602082019050919050565b600061239f602483612952565b91506123aa82612d9f565b604082019050919050565b60006123c2601983612952565b91506123cd82612dee565b602082019050919050565b60006123e5601883612952565b91506123f082612e17565b602082019050919050565b6000612408602c83612952565b915061241382612e40565b604082019050919050565b600061242b603883612952565b915061243682612e8f565b604082019050919050565b600061244e602a83612952565b915061245982612ede565b604082019050919050565b6000612471602983612952565b915061247c82612f2d565b604082019050919050565b6000612494602083612952565b915061249f82612f7c565b602082019050919050565b60006124b7602c83612952565b91506124c282612fa5565b604082019050919050565b60006124da602f83612952565b91506124e582612ff4565b604082019050919050565b60006124fd602183612952565b915061250882613043565b604082019050919050565b6000612520603183612952565b915061252b82613092565b604082019050919050565b6000612543602c83612952565b915061254e826130e1565b604082019050919050565b61256281612a93565b82525050565b61257181612a93565b82525050565b600061258382856122d5565b915061258f82846122d5565b91508190509392505050565b60006020820190506125b060008301846121e7565b92915050565b60006080820190506125cb60008301876121e7565b6125d860208301866121e7565b6125e56040830185612568565b81810360608301526125f78184612263565b905095945050505050565b6000602082019050818103600083015261261c81846121f6565b905092915050565b60006020820190506126396000830184612254565b92915050565b60006020820190508181036000830152612659818461229c565b905092915050565b6000602082019050818103600083015261267a81612306565b9050919050565b6000602082019050818103600083015261269a81612329565b9050919050565b600060208201905081810360008301526126ba8161234c565b9050919050565b600060208201905081810360008301526126da8161236f565b9050919050565b600060208201905081810360008301526126fa81612392565b9050919050565b6000602082019050818103600083015261271a816123b5565b9050919050565b6000602082019050818103600083015261273a816123d8565b9050919050565b6000602082019050818103600083015261275a816123fb565b9050919050565b6000602082019050818103600083015261277a8161241e565b9050919050565b6000602082019050818103600083015261279a81612441565b9050919050565b600060208201905081810360008301526127ba81612464565b9050919050565b600060208201905081810360008301526127da81612487565b9050919050565b600060208201905081810360008301526127fa816124aa565b9050919050565b6000602082019050818103600083015261281a816124cd565b9050919050565b6000602082019050818103600083015261283a816124f0565b9050919050565b6000602082019050818103600083015261285a81612513565b9050919050565b6000602082019050818103600083015261287a81612536565b9050919050565b60006020820190506128966000830184612568565b92915050565b60006128a66128b7565b90506128b28282612b11565b919050565b6000604051905090565b600067ffffffffffffffff8211156128dc576128db612c49565b5b6128e582612c78565b9050602081019050919050565b6000819050602082019050919050565b600081519050919050565b600081519050919050565b600081519050919050565b6000602082019050919050565b600082825260208201905092915050565b600082825260208201905092915050565b600082825260208201905092915050565b600081905092915050565b600061297982612a93565b915061298483612a93565b9250827fffffffffffffffffffffffffffffffffffffffffffffffffffffffffffffffff038211156129b9576129b8612bbc565b5b828201905092915050565b60006129cf82612a93565b91506129da83612a93565b9250826129ea576129e9612beb565b5b828204905092915050565b6000612a0082612a93565b9150612a0b83612a93565b925082821015612a1e57612a1d612bbc565b5b828203905092915050565b6000612a3482612a73565b9050919050565b60008115159050919050565b60007fffffffff0000000000000000000000000000000000000000000000000000000082169050919050565b600073ffffffffffffffffffffffffffffffffffffffff82169050919050565b6000819050919050565b82818337600083830152505050565b60005b83811015612aca578082015181840152602081019050612aaf565b83811115612ad9576000848401525b50505050565b60006002820490506001821680612af757607f821691505b60208210811415612b0b57612b0a612c1a565b5b50919050565b612b1a82612c78565b810181811067ffffffffffffffff82111715612b3957612b38612c49565b5b80604052505050565b6000612b4d82612a93565b91507fffffffffffffffffffffffffffffffffffffffffffffffffffffffffffffffff821415612b8057612b7f612bbc565b5b600182019050919050565b6000612b9682612a93565b9150612ba183612a93565b925082612bb157612bb0612beb565b5b828206905092915050565b7f4e487b7100000000000000000000000000000000000000000000000000000000600052601160045260246000fd5b7f4e487b7100000000000000000000000000000000000000000000000000000000600052601260045260246000fd5b7f4e487b7100000000000000000000000000000000000000000000000000000000600052602260045260246000fd5b7f4e487b7100000000000000000000000000000000000000000000000000000000600052604160045260246000fd5b6000601f19601f8301169050919050565b7f455243373231456e756d657261626c653a206f776e657220696e646578206f7560008201527f74206f6620626f756e6473000000000000000000000000000000000000000000602082015250565b7f4552433732313a207472616e7366657220746f206e6f6e20455243373231526560008201527f63656976657220696d706c656d656e7465720000000000000000000000000000602082015250565b7f4552433732313a207472616e736665722066726f6d20696e636f72726563742060008201527f6f776e6572000000000000000000000000000000000000000000000000000000602082015250565b7f4552433732313a20746f6b656e20616c7265616479206d696e74656400000000600082015250565b7f4552433732313a207472616e7366657220746f20746865207a65726f2061646460008201527f7265737300000000000000000000000000000000000000000000000000000000602082015250565b7f4552433732313a20617070726f766520746f2063616c6c657200000000000000600082015250565b7f416c6c206170657320686173206265656e206d696e7465640000000000000000600082015250565b7f4552433732313a206f70657261746f7220717565727920666f72206e6f6e657860008201527f697374656e7420746f6b656e0000000000000000000000000000000000000000602082015250565b7f4552433732313a20617070726f76652063616c6c6572206973206e6f74206f7760008201527f6e6572206e6f7220617070726f76656420666f7220616c6c0000000000000000602082015250565b7f4552433732313a2062616c616e636520717565727920666f7220746865207a6560008201527f726f206164647265737300000000000000000000000000000000000000000000602082015250565b7f4552433732313a206f776e657220717565727920666f72206e6f6e657869737460008201527f656e7420746f6b656e0000000000000000000000000000000000000000000000602082015250565b7f4552433732313a206d696e7420746f20746865207a65726f2061646472657373600082015250565b7f4552433732313a20617070726f76656420717565727920666f72206e6f6e657860008201527f697374656e7420746f6b656e0000000000000000000000000000000000000000602082015250565b7f4552433732314d657461646174613a2055524920717565727920666f72206e6f60008201527f6e6578697374656e7420746f6b656e0000000000000000000000000000000000602082015250565b7f4552433732313a20617070726f76616c20746f2063757272656e74206f776e6560008201527f7200000000000000000000000000000000000000000000000000000000000000602082015250565b7f4552433732313a207472616e736665722063616c6c6572206973206e6f74206f60008201527f776e6572206e6f7220617070726f766564000000000000000000000000000000602082015250565b7f455243373231456e756d657261626c653a20676c6f62616c20696e646578206f60008201527f7574206f6620626f756e64730000000000000000000000000000000000000000602082015250565b61313981612a29565b811461314457600080fd5b50565b61315081612a3b565b811461315b57600080fd5b50565b61316781612a47565b811461317257600080fd5b50565b61317e81612a93565b811461318957600080fd5b5056fe68747470733a2f2f697066732e696f2f697066732f516d65536a53696e4870506e6d586d73704d6a776958794e367a533445397a63636172694752336a7863615774712fa26469706673582212208f48ef0f42cac157269d851fd05da5b96605476ca31f176fc784ae11b3ac14a164736f6c63430008040033",
  "linkReferences": {},
  "deployedLinkReferences": {}
}